{
  "address": "0x56E862Da14e4C998dC2c297D17501512A524D527",
  "abi": [
    {
      "inputs": [
        {
          "internalType": "address",
          "name": "_owner",
          "type": "address"
        }
      ],
      "stateMutability": "nonpayable",
      "type": "constructor"
    },
    {
      "anonymous": false,
      "inputs": [
        {
          "indexed": true,
          "internalType": "address",
          "name": "factory",
          "type": "address"
        }
      ],
      "name": "FactoryRemoved",
      "type": "event"
    },
    {
      "anonymous": false,
      "inputs": [
        {
          "indexed": true,
          "internalType": "address",
          "name": "factory",
          "type": "address"
        },
        {
          "indexed": true,
          "internalType": "bool",
          "name": "alreadyExists",
          "type": "bool"
        },
        {
          "indexed": false,
          "internalType": "uint32",
          "name": "amountsOutNominator",
          "type": "uint32"
        },
        {
          "indexed": false,
          "internalType": "uint32",
          "name": "amountsOutDenominator",
          "type": "uint32"
        }
      ],
      "name": "FactorySet",
      "type": "event"
    },
    {
      "anonymous": false,
      "inputs": [
        {
          "indexed": true,
          "internalType": "contract IERC20",
          "name": "mainToken",
          "type": "address"
        }
      ],
      "name": "MainTokenSet",
      "type": "event"
    },
    {
      "anonymous": false,
      "inputs": [
        {
          "indexed": true,
          "internalType": "address",
          "name": "previousOwner",
          "type": "address"
        },
        {
          "indexed": true,
          "internalType": "address",
          "name": "newOwner",
          "type": "address"
        }
      ],
      "name": "OwnershipTransferred",
      "type": "event"
    },
    {
      "anonymous": false,
      "inputs": [
        {
          "indexed": true,
          "internalType": "address",
          "name": "previousPendingOwner",
          "type": "address"
        },
        {
          "indexed": true,
          "internalType": "address",
          "name": "newPendingOwner",
          "type": "address"
        }
      ],
      "name": "PendingOwnershipTransferred",
      "type": "event"
    },
    {
      "anonymous": false,
      "inputs": [
        {
          "indexed": true,
          "internalType": "contract IERC20",
          "name": "from",
          "type": "address"
        },
        {
          "indexed": true,
          "internalType": "contract IERC20",
          "name": "to",
          "type": "address"
        },
        {
          "indexed": true,
          "internalType": "bool",
          "name": "alreadyExists",
          "type": "bool"
        }
      ],
      "name": "RouteAdded",
      "type": "event"
    },
    {
      "inputs": [
        {
          "internalType": "contract IERC20",
          "name": "fromToken",
          "type": "address"
        },
        {
          "internalType": "contract IERC20",
          "name": "toToken",
          "type": "address"
        },
        {
          "internalType": "address",
          "name": "recipient",
          "type": "address"
        },
        {
          "internalType": "uint256",
          "name": "amount",
          "type": "uint256"
        }
      ],
      "name": "convertERC20",
      "outputs": [],
      "stateMutability": "nonpayable",
      "type": "function"
    },
    {
      "inputs": [
        {
          "internalType": "address",
          "name": "",
          "type": "address"
        }
      ],
      "name": "factories",
      "outputs": [
        {
          "internalType": "address",
          "name": "factory",
          "type": "address"
        },
        {
          "internalType": "uint32",
          "name": "amountsOutNominator",
          "type": "uint32"
        },
        {
          "internalType": "uint32",
          "name": "amountsOutDenominator",
          "type": "uint32"
        }
      ],
      "stateMutability": "view",
      "type": "function"
    },
    {
      "inputs": [],
      "name": "factoryLength",
      "outputs": [
        {
          "internalType": "uint256",
          "name": "",
          "type": "uint256"
        }
      ],
      "stateMutability": "view",
      "type": "function"
    },
    {
      "inputs": [
        {
          "internalType": "uint256",
          "name": "index",
          "type": "uint256"
        }
      ],
      "name": "getFactory",
      "outputs": [
        {
          "internalType": "address",
          "name": "",
          "type": "address"
        }
      ],
      "stateMutability": "view",
      "type": "function"
    },
    {
      "inputs": [],
      "name": "mainToken",
      "outputs": [
        {
          "internalType": "contract IERC20",
          "name": "",
          "type": "address"
        }
      ],
      "stateMutability": "view",
      "type": "function"
    },
    {
      "inputs": [],
      "name": "owner",
      "outputs": [
        {
          "internalType": "address",
          "name": "",
          "type": "address"
        }
      ],
      "stateMutability": "view",
      "type": "function"
    },
    {
      "inputs": [
        {
          "internalType": "contract IERC20",
          "name": "",
          "type": "address"
        }
      ],
      "name": "pairInfo",
      "outputs": [
        {
          "internalType": "contract IERC20",
          "name": "token0",
          "type": "address"
        },
        {
          "internalType": "contract IERC20",
          "name": "token1",
          "type": "address"
        }
      ],
      "stateMutability": "view",
      "type": "function"
    },
    {
      "inputs": [],
      "name": "pendingOwner",
      "outputs": [
        {
          "internalType": "address",
          "name": "",
          "type": "address"
        }
      ],
      "stateMutability": "view",
      "type": "function"
    },
    {
      "inputs": [
        {
          "internalType": "address",
          "name": "factory",
          "type": "address"
        }
      ],
      "name": "removeFactory",
      "outputs": [],
      "stateMutability": "nonpayable",
      "type": "function"
    },
    {
      "inputs": [],
      "name": "renounceOwnership",
      "outputs": [],
      "stateMutability": "nonpayable",
      "type": "function"
    },
    {
      "inputs": [
        {
          "internalType": "contract IERC20",
          "name": "token0",
          "type": "address"
        },
        {
          "internalType": "contract IERC20",
          "name": "token1",
          "type": "address"
        }
      ],
      "name": "routeLength",
      "outputs": [
        {
          "internalType": "uint256",
          "name": "",
          "type": "uint256"
        }
      ],
      "stateMutability": "view",
      "type": "function"
    },
    {
      "inputs": [
        {
          "internalType": "contract IERC20",
          "name": "",
          "type": "address"
        },
        {
          "internalType": "contract IERC20",
          "name": "",
          "type": "address"
        },
        {
          "internalType": "uint256",
          "name": "",
          "type": "uint256"
        }
      ],
      "name": "routes",
      "outputs": [
        {
          "internalType": "contract IERC20",
          "name": "from",
          "type": "address"
        },
        {
          "internalType": "contract IERC20",
          "name": "to",
          "type": "address"
        },
        {
          "internalType": "contract IUniswapV2Pair",
          "name": "pair",
          "type": "address"
        },
        {
          "internalType": "uint32",
          "name": "amountsOutNominator",
          "type": "uint32"
        },
        {
          "internalType": "uint32",
          "name": "amountsOutDenominator",
          "type": "uint32"
        }
      ],
      "stateMutability": "view",
      "type": "function"
    },
    {
      "inputs": [
        {
          "internalType": "address",
          "name": "factory",
          "type": "address"
        },
        {
          "internalType": "uint32",
          "name": "amountsOutNominator",
          "type": "uint32"
        },
        {
          "internalType": "uint32",
          "name": "amountsOutDenominator",
          "type": "uint32"
        }
      ],
      "name": "setFactory",
      "outputs": [],
      "stateMutability": "nonpayable",
      "type": "function"
    },
    {
      "inputs": [
        {
          "internalType": "contract IERC20",
          "name": "_mainToken",
          "type": "address"
        }
      ],
      "name": "setMainToken",
      "outputs": [],
      "stateMutability": "nonpayable",
      "type": "function"
    },
    {
      "inputs": [
        {
          "internalType": "address",
          "name": "newPendingOwner",
          "type": "address"
        }
      ],
      "name": "setPendingOwner",
      "outputs": [],
      "stateMutability": "nonpayable",
      "type": "function"
    },
    {
      "inputs": [
        {
          "internalType": "contract IERC20",
          "name": "from",
          "type": "address"
        },
        {
          "internalType": "contract IERC20",
          "name": "to",
          "type": "address"
        },
        {
          "internalType": "address[]",
          "name": "inputRoute",
          "type": "address[]"
        }
      ],
      "name": "setRoute",
      "outputs": [],
      "stateMutability": "nonpayable",
      "type": "function"
    },
    {
      "inputs": [
        {
          "internalType": "contract IERC20",
          "name": "",
          "type": "address"
        },
        {
          "internalType": "contract IERC20",
          "name": "",
          "type": "address"
        }
      ],
      "name": "tokenSwapType",
      "outputs": [
        {
          "internalType": "enum ZapHandlerV1.SwapType",
          "name": "",
          "type": "uint8"
        }
      ],
      "stateMutability": "view",
      "type": "function"
    },
    {
      "inputs": [],
      "name": "transferOwnership",
      "outputs": [],
      "stateMutability": "nonpayable",
      "type": "function"
    }
  ],
  "transactionHash": "0xcd20d3fe2a2b5e4b98902e84a622831339816fc834bc0eb15521a185e51129b3",
  "args": [
    "0xa66745F0092F7460F107E4c66C224553bF4Cd727"
  ],
  "solcInputHash": "e8b1d42f3f3bbb8408360118cf54cde2",
  "bytecode": "0x60806040523480156200001157600080fd5b506040516200471a3803806200471a8339810160408190526200003491620000b0565b6200003f3362000056565b60016002556200004f8162000056565b50620000e2565b600180546001600160a01b0319908116909155600080546001600160a01b03848116938216841783556040519116929183917f8be0079c531659141344cd1fd0a4f28419497f9722a3daafe3b4186f6b6457e09190a35050565b600060208284031215620000c357600080fd5b81516001600160a01b0381168114620000db57600080fd5b9392505050565b61462880620000f26000396000f3fe608060405234801561001057600080fd5b50600436106101365760003560e01c806363c6edfa116100b2578063bcbf4c8a11610081578063dc0a422911610066578063dc0a422914610332578063e30c3978146103a0578063fab52689146103c057600080fd5b8063bcbf4c8a1461030c578063c42069ec1461031f57600080fd5b806363c6edfa14610298578063715018a6146102de578063880ad0af146102e65780638da5cb5b146102ee57600080fd5b80634b37c73f116101095780635cadd6d1116100ee5780635cadd6d1146101e9578063600c557d146101fc578063616f62361461025d57600080fd5b80634b37c73f146101c357806355a204f9146101d657600080fd5b8063263409261461013b57806327ce464e146101505780633fc15f1514610163578063470f4985146101ad575b600080fd5b61014e6101493660046140ea565b61046e565b005b61014e61015e366004613fb9565b610504565b6009546101839073ffffffffffffffffffffffffffffffffffffffff1681565b60405173ffffffffffffffffffffffffffffffffffffffff90911681526020015b60405180910390f35b6101b56105f4565b6040519081526020016101a4565b61014e6101d1366004613fb9565b610605565b6101836101e4366004614278565b610777565b61014e6101f7366004613ff3565b61078a565b61020f61020a3660046141fb565b610ae0565b6040805173ffffffffffffffffffffffffffffffffffffffff96871681529486166020860152929094169183019190915263ffffffff9081166060830152909116608082015260a0016101a4565b61028b61026b366004614060565b600360209081526000928352604080842090915290825290205460ff1681565b6040516101a491906142ea565b6101b56102a6366004614060565b73ffffffffffffffffffffffffffffffffffffffff918216600090815260086020908152604080832093909416825291909152205490565b61014e610b88565b61014e610c15565b60005473ffffffffffffffffffffffffffffffffffffffff16610183565b61014e61031a366004614099565b610d99565b61014e61032d366004613fb9565b610e9b565b610373610340366004613fb9565b6004602052600090815260409020805460019091015473ffffffffffffffffffffffffffffffffffffffff918216911682565b6040805173ffffffffffffffffffffffffffffffffffffffff9384168152929091166020830152016101a4565b6001546101839073ffffffffffffffffffffffffffffffffffffffff1681565b6104356103ce366004613fb9565b60076020526000908152604090205473ffffffffffffffffffffffffffffffffffffffff81169063ffffffff740100000000000000000000000000000000000000008204811691780100000000000000000000000000000000000000000000000090041683565b6040805173ffffffffffffffffffffffffffffffffffffffff909416845263ffffffff92831660208501529116908201526060016101a4565b60005473ffffffffffffffffffffffffffffffffffffffff1633146104f4576040517f08c379a000000000000000000000000000000000000000000000000000000000815260206004820181905260248201527f4f776e61626c653a2063616c6c6572206973206e6f7420746865206f776e657260448201526064015b60405180910390fd5b6104ff838383610f93565b505050565b60005473ffffffffffffffffffffffffffffffffffffffff163314610585576040517f08c379a000000000000000000000000000000000000000000000000000000000815260206004820181905260248201527f4f776e61626c653a2063616c6c6572206973206e6f7420746865206f776e657260448201526064016104eb565b600980547fffffffffffffffffffffffff00000000000000000000000000000000000000001673ffffffffffffffffffffffffffffffffffffffff83169081179091556040517f9071993da430171549ad7f254aef8892d82c06c4611995b307947f8a36baf1cb90600090a250565b6000610600600561109d565b905090565b60005473ffffffffffffffffffffffffffffffffffffffff163314610686576040517f08c379a000000000000000000000000000000000000000000000000000000000815260206004820181905260248201527f4f776e61626c653a2063616c6c6572206973206e6f7420746865206f776e657260448201526064016104eb565b6106916005826110a7565b6106f7576040517f08c379a000000000000000000000000000000000000000000000000000000000815260206004820152600760248201527f216578697374730000000000000000000000000000000000000000000000000060448201526064016104eb565b6107026005826110d9565b5073ffffffffffffffffffffffffffffffffffffffff811660008181526007602052604080822080547fffffffff00000000000000000000000000000000000000000000000000000000169055517fafa2737b2090fa39c66b7348625f0c03726240f724defbc6216d679506f944419190a250565b60006107846005836110fb565b92915050565b60005473ffffffffffffffffffffffffffffffffffffffff16331461080b576040517f08c379a000000000000000000000000000000000000000000000000000000000815260206004820181905260248201527f4f776e61626c653a2063616c6c6572206973206e6f7420746865206f776e657260448201526064016104eb565b8163ffffffff168163ffffffff161015610881576040517f08c379a000000000000000000000000000000000000000000000000000000000815260206004820152600c60248201527f216e6f6d203e2064656e6f6d000000000000000000000000000000000000000060448201526064016104eb565b63ffffffff82166108ee576040517f08c379a000000000000000000000000000000000000000000000000000000000815260206004820152600560248201527f217a65726f00000000000000000000000000000000000000000000000000000060448201526064016104eb565b63ffffffff821661090157610901614475565b73ffffffffffffffffffffffffffffffffffffffff831661097e576040517f08c379a000000000000000000000000000000000000000000000000000000000815260206004820152600d60248201527f217a65726f20666163746f72790000000000000000000000000000000000000060448201526064016104eb565b600061098b6005856110a7565b6040805160608101825273ffffffffffffffffffffffffffffffffffffffff80881680835263ffffffff80891660208086019182528983168688019081526000948552600790915295909220935184549251955182167801000000000000000000000000000000000000000000000000027fffffffff00000000ffffffffffffffffffffffffffffffffffffffffffffffff96831674010000000000000000000000000000000000000000027fffffffffffffffff00000000000000000000000000000000000000000000000090941691909416179190911793909316179055909150610a7d90600590869061110716565b506040805163ffffffff8086168252841660208201528215159173ffffffffffffffffffffffffffffffffffffffff8716917f371529b40bbd6a0fdc00ffa2f65512b7ba6152f0c2111608704538c5491c9147910160405180910390a350505050565b60086020528260005260406000206020528160005260406000208181548110610b0857600080fd5b600091825260209091206003909102018054600182015460029092015473ffffffffffffffffffffffffffffffffffffffff918216955091811693508116915063ffffffff740100000000000000000000000000000000000000008204811691780100000000000000000000000000000000000000000000000090041685565b60005473ffffffffffffffffffffffffffffffffffffffff163314610c09576040517f08c379a000000000000000000000000000000000000000000000000000000000815260206004820181905260248201527f4f776e61626c653a2063616c6c6572206973206e6f7420746865206f776e657260448201526064016104eb565b610c136000611129565b565b60015473ffffffffffffffffffffffffffffffffffffffff163373ffffffffffffffffffffffffffffffffffffffff1614610cd2576040517f08c379a000000000000000000000000000000000000000000000000000000000815260206004820152602760248201527f4f776e61626c653a2063616c6c6572206973206e6f74207468652070656e646960448201527f6e674f776e65720000000000000000000000000000000000000000000000000060648201526084016104eb565b60015473ffffffffffffffffffffffffffffffffffffffff16610d77576040517f08c379a000000000000000000000000000000000000000000000000000000000815260206004820152602660248201527f4f776e61626c653a206e6577206f776e657220697320746865207a65726f206160448201527f646472657373000000000000000000000000000000000000000000000000000060648201526084016104eb565b600154610c139073ffffffffffffffffffffffffffffffffffffffff16611129565b73ffffffffffffffffffffffffffffffffffffffff808516600090815260036020908152604080832093871683529290529081205460ff1690816004811115610de457610de4614502565b1415610df757610df485856111a8565b90505b6001816004811115610e0b57610e0b614502565b1415610e2257610e1d8585858561126e565b610e94565b6002816004811115610e3657610e36614502565b1415610e4857610e1d858585856112d8565b6003816004811115610e5c57610e5c614502565b1415610e6e57610e1d85858585611930565b6004816004811115610e8257610e82614502565b1415610e9457610e9485858585611db1565b5050505050565b60005473ffffffffffffffffffffffffffffffffffffffff163314610f1c576040517f08c379a000000000000000000000000000000000000000000000000000000000815260206004820181905260248201527f4f776e61626c653a2063616c6c6572206973206e6f7420746865206f776e657260448201526064016104eb565b6001805473ffffffffffffffffffffffffffffffffffffffff8381167fffffffffffffffffffffffff0000000000000000000000000000000000000000831681179093556040519116919082907f1e1c2f9f5b763f63f56cae5a9a406c263521f324917ae0fe29e5cf9955e81ec890600090a35050565b73ffffffffffffffffffffffffffffffffffffffff8084166000908152600860209081526040808320938616835292905220541515610fd3848484611e39565b8015158373ffffffffffffffffffffffffffffffffffffffff168573ffffffffffffffffffffffffffffffffffffffff167f4543854d4a9097d1b702bd5734d0a5a2834070931096c2a7a0d326bb34f71e5660405160405180910390a461103a848461272d565b8015158473ffffffffffffffffffffffffffffffffffffffff168473ffffffffffffffffffffffffffffffffffffffff167f4543854d4a9097d1b702bd5734d0a5a2834070931096c2a7a0d326bb34f71e5660405160405180910390a450505050565b6000610784825490565b73ffffffffffffffffffffffffffffffffffffffff8116600090815260018301602052604081205415155b9392505050565b60006110d28373ffffffffffffffffffffffffffffffffffffffff8416612c04565b60006110d28383612cf7565b60006110d28373ffffffffffffffffffffffffffffffffffffffff8416612d21565b600180547fffffffffffffffffffffffff00000000000000000000000000000000000000009081169091556000805473ffffffffffffffffffffffffffffffffffffffff848116938216841783556040519116929183917f8be0079c531659141344cd1fd0a4f28419497f9722a3daafe3b4186f6b6457e09190a35050565b6000806111b484612d70565b905060006111c184612d70565b9050600082156111e157816111d75760036111da565b60045b90506111f3565b816111ed5760016111f0565b60025b90505b73ffffffffffffffffffffffffffffffffffffffff808716600090815260036020908152604080832093891683529290522080548291907fffffffffffffffffffffffffffffffffffffffffffffffffffffffffffffff0016600183600481111561126057611260614502565b021790555095945050505050565b6040805160a080820183526000808352602080840182905283850182905260608085018390526080948501839052855193840186528284529083018290529382018190529281018390529081018290526112ca90868685612fc7565b9050610e94818460006132b9565b73ffffffffffffffffffffffffffffffffffffffff808416600090815260046020908152604080832081518083019092528054851682526001015490931690830152611325600284614394565b9050600061133382856143e5565b9050826000015173ffffffffffffffffffffffffffffffffffffffff168773ffffffffffffffffffffffffffffffffffffffff1614156113e2576040517f5188d10d000000000000000000000000000000000000000000000000000000008152306004820152602481018390523390635188d10d90604401600060405180830381600087803b1580156113c557600080fd5b505af11580156113d9573d6000803e3d6000fd5b5050505061144f565b6040805160a080820183526000808352602080840182905283850182905260608085018390526080948501839052855193840186528284529083018290529382018190529281018390529081018290526114409085518a9086612fc7565b905061144d8130856132b9565b505b826020015173ffffffffffffffffffffffffffffffffffffffff168773ffffffffffffffffffffffffffffffffffffffff1614156114fc576040517f5188d10d000000000000000000000000000000000000000000000000000000008152306004820152602481018290523390635188d10d90604401600060405180830381600087803b1580156114df57600080fd5b505af11580156114f3573d6000803e3d6000fd5b5050505061156b565b6040805160a0808201835260008083526020808401829052838501829052606080850183905260809485018390528551938401865282845290830182905293820181905292810183905290810182905261155c9089866020015185612fc7565b90506115698130846132b9565b505b82516040517f70a0823100000000000000000000000000000000000000000000000000000000815230600482015260009173ffffffffffffffffffffffffffffffffffffffff16906370a082319060240160206040518083038186803b1580156115d457600080fd5b505afa1580156115e8573d6000803e3d6000fd5b505050506040513d601f19601f8201168201806040525081019061160c9190614291565b60208501516040517f70a0823100000000000000000000000000000000000000000000000000000000815230600482015291925060009173ffffffffffffffffffffffffffffffffffffffff909116906370a082319060240160206040518083038186803b15801561167d57600080fd5b505afa158015611691573d6000803e3d6000fd5b505050506040513d601f19601f820116820180604052508101906116b59190614291565b90506000808973ffffffffffffffffffffffffffffffffffffffff16630902f1ac6040518163ffffffff1660e01b815260040160606040518083038186803b15801561170057600080fd5b505afa158015611714573d6000803e3d6000fd5b505050506040513d601f19601f82011682018060405250810190611738919061423c565b506dffffffffffffffffffffffffffff91821693501690508360008361175e84846143a8565b6117689190614394565b90508481111561178d578261177d85876143a8565b6117879190614394565b91508490505b88516117b09073ffffffffffffffffffffffffffffffffffffffff168d84613896565b60208901516117d69073ffffffffffffffffffffffffffffffffffffffff168d83613896565b858210156118295761182961180060005473ffffffffffffffffffffffffffffffffffffffff1690565b61180a84896143e5565b8b5173ffffffffffffffffffffffffffffffffffffffff169190613896565b8481101561187f5761187f61185360005473ffffffffffffffffffffffffffffffffffffffff1690565b61185d83886143e5565b60208c015173ffffffffffffffffffffffffffffffffffffffff169190613896565b6040517f6a62784200000000000000000000000000000000000000000000000000000000815273ffffffffffffffffffffffffffffffffffffffff8c811660048301528d1690636a62784290602401602060405180830381600087803b1580156118e857600080fd5b505af11580156118fc573d6000803e3d6000fd5b505050506040513d601f19601f820116820180604052508101906119209190614291565b5050505050505050505050505050565b73ffffffffffffffffffffffffffffffffffffffff848116600081815260046020818152604092839020835180850185528154871681526001909101549095169085015290517f5188d10d00000000000000000000000000000000000000000000000000000000815290810191909152602481018390523390635188d10d90604401600060405180830381600087803b1580156119cc57600080fd5b505af11580156119e0573d6000803e3d6000fd5b50506040517f89afcb4400000000000000000000000000000000000000000000000000000000815230600482015273ffffffffffffffffffffffffffffffffffffffff881692506389afcb4491506024016040805180830381600087803b158015611a4a57600080fd5b505af1158015611a5e573d6000803e3d6000fd5b505050506040513d601f19601f82011682018060405250810190611a8291906142aa565b505080516040517f70a0823100000000000000000000000000000000000000000000000000000000815230600482015260009173ffffffffffffffffffffffffffffffffffffffff16906370a082319060240160206040518083038186803b158015611aed57600080fd5b505afa158015611b01573d6000803e3d6000fd5b505050506040513d601f19601f82011682018060405250810190611b259190614291565b90508473ffffffffffffffffffffffffffffffffffffffff16826000015173ffffffffffffffffffffffffffffffffffffffff161415611b8557611b8073ffffffffffffffffffffffffffffffffffffffff86168583613896565b611c0f565b81516040805160a080820183526000808352602080840182905283850182905260608085018390526080948501839052855193840186529483018290529382018190529181018290526001815273ffffffffffffffffffffffffffffffffffffffff9093169183019190915290611bff9084518885612fc7565b9050611c0d818660006132b9565b505b60208201516040517f70a0823100000000000000000000000000000000000000000000000000000000815230600482015260009173ffffffffffffffffffffffffffffffffffffffff16906370a082319060240160206040518083038186803b158015611c7b57600080fd5b505afa158015611c8f573d6000803e3d6000fd5b505050506040513d601f19601f82011682018060405250810190611cb39190614291565b90508573ffffffffffffffffffffffffffffffffffffffff16836020015173ffffffffffffffffffffffffffffffffffffffff161415611d1357611d0e73ffffffffffffffffffffffffffffffffffffffff87168683613896565b611da8565b6000611d98611d8c85602001516040805160a08082018352600080835260208084018290528385018290526060808501839052608094850183905285519384018652948301829052938201819052918101919091526001815273ffffffffffffffffffffffffffffffffffffffff929092169082015290565b85602001518985612fc7565b9050611da6818760006132b9565b505b50505050505050565b6040517f08c379a000000000000000000000000000000000000000000000000000000000815260206004820152602b60248201527f756e696d706c656d656e74656420666561747572653a207061697220746f207060448201527f61697220726f7574696e6700000000000000000000000000000000000000000060648201526084016104eb565b600381511015611ea5576040517f08c379a000000000000000000000000000000000000000000000000000000000815260206004820152601060248201527f21726f75746520746f6f2073686f72740000000000000000000000000000000060448201526064016104eb565b60028151611eb39190614461565b600114611f1c576040517f08c379a000000000000000000000000000000000000000000000000000000000815260206004820152601660248201527f21726f75746520686173206576656e206c656e6774680000000000000000000060448201526064016104eb565b8273ffffffffffffffffffffffffffffffffffffffff1681600081518110611f4657611f46614560565b602002602001015173ffffffffffffffffffffffffffffffffffffffff1614611fcb576040517f08c379a000000000000000000000000000000000000000000000000000000000815260206004820152601b60248201527f21746f6b656e30206e6f7420726f75746520626567696e6e696e67000000000060448201526064016104eb565b8173ffffffffffffffffffffffffffffffffffffffff168160018351611ff191906143e5565b8151811061200157612001614560565b602002602001015173ffffffffffffffffffffffffffffffffffffffff1614612086576040517f08c379a000000000000000000000000000000000000000000000000000000000815260206004820152601860248201527f21746f6b656e31206e6f7420726f75746520656e64696e67000000000000000060448201526064016104eb565b73ffffffffffffffffffffffffffffffffffffffff808416600090815260086020908152604080832093861683529290529081206120c391613ef5565b6000816000815181106120d8576120d8614560565b60209081029190910101516040517f70a0823100000000000000000000000000000000000000000000000000000000815230600482015290915073ffffffffffffffffffffffffffffffffffffffff8216906370a082319060240160206040518083038186803b15801561214b57600080fd5b505afa15801561215f573d6000803e3d6000fd5b505050506040513d601f19601f820116820180604052508101906121839190614291565b5060015b8251811015610e945760008382815181106121a4576121a4614560565b602002602001015190506000848360016121be919061437c565b815181106121ce576121ce614560565b60200260200101519050600073ffffffffffffffffffffffffffffffffffffffff168273ffffffffffffffffffffffffffffffffffffffff1614156124045773ffffffffffffffffffffffffffffffffffffffff8085166000908152600860209081526040808320938516835292905220546122a6576040517f08c379a000000000000000000000000000000000000000000000000000000000815260206004820152601e60248201527f217377617020737562726f757465206e6f74206372656174656420796574000060448201526064016104eb565b73ffffffffffffffffffffffffffffffffffffffff87811660009081526008602090815260408083208a851684528252808320815160a08101835289861681528686168185019081529281018581526060820186815260808301878152845460018082018755958952969097209251600390960290920180547fffffffffffffffffffffffff00000000000000000000000000000000000000009081169689169690961781559351928401805490951692871692909217909355516002909101805492519351919094167fffffffffffffffff000000000000000000000000000000000000000000000000909216919091177401000000000000000000000000000000000000000063ffffffff93841602177fffffffff00000000ffffffffffffffffffffffffffffffffffffffffffffffff1678010000000000000000000000000000000000000000000000009290911691909102179055612717565b61240f6005836110a7565b612475576040517f08c379a000000000000000000000000000000000000000000000000000000000815260206004820152601760248201527f21666163746f727920646f6573206e6f7420657869737400000000000000000060448201526064016104eb565b6040517fe6a4390500000000000000000000000000000000000000000000000000000000815273ffffffffffffffffffffffffffffffffffffffff858116600483015282811660248301526000919084169063e6a439059060440160206040518083038186803b1580156124e857600080fd5b505afa1580156124fc573d6000803e3d6000fd5b505050506040513d601f19601f820116820180604052508101906125209190613fd6565b905073ffffffffffffffffffffffffffffffffffffffff811661259f576040517f08c379a000000000000000000000000000000000000000000000000000000000815260206004820152601360248201527f7061697220646f6573206e6f742065786973740000000000000000000000000060448201526064016104eb565b73ffffffffffffffffffffffffffffffffffffffff80891660009081526008602090815260408083208b851684528252808320815160a0810183528a86168152878616818501908152968616818401908152898716865260078086529386205463ffffffff74010000000000000000000000000000000000000000808304821660608601908152968852780100000000000000000000000000000000000000000000000092839004821660808601908152865460018181018955978b5298909920945160039098029094018054978a167fffffffffffffffffffffffff00000000000000000000000000000000000000009889161781559951948a018054958a16959097169490941790955551600290970180549351955183169094027fffffffff00000000ffffffffffffffffffffffffffffffffffffffffffffffff95909216027fffffffffffffffff000000000000000000000000000000000000000000000000909216959094169490941793909317161790555b9250612726905060028261437c565b9050612187565b73ffffffffffffffffffffffffffffffffffffffff8082166000908152600860209081526040808320938616835292905290812061276a91613ef5565b73ffffffffffffffffffffffffffffffffffffffff8083166000908152600860209081526040808320938516835292815282822054835160a081018552838152918201839052928101829052606081018290526080810182905260005b83811015612bfc57806127db6001866143e5565b6127e591906143e5565b73ffffffffffffffffffffffffffffffffffffffff8088166000908152600860209081526040808320938a168352929052208054919450908490811061282d5761282d614560565b90600052602060002090600302016040518060a00160405290816000820160009054906101000a900473ffffffffffffffffffffffffffffffffffffffff1673ffffffffffffffffffffffffffffffffffffffff1673ffffffffffffffffffffffffffffffffffffffff1681526020016001820160009054906101000a900473ffffffffffffffffffffffffffffffffffffffff1673ffffffffffffffffffffffffffffffffffffffff1673ffffffffffffffffffffffffffffffffffffffff1681526020016002820160009054906101000a900473ffffffffffffffffffffffffffffffffffffffff1673ffffffffffffffffffffffffffffffffffffffff1673ffffffffffffffffffffffffffffffffffffffff1681526020016002820160149054906101000a900463ffffffff1663ffffffff1663ffffffff1681526020016002820160189054906101000a900463ffffffff1663ffffffff1663ffffffff16815250509150600860008673ffffffffffffffffffffffffffffffffffffffff1673ffffffffffffffffffffffffffffffffffffffff16815260200190815260200160002060008773ffffffffffffffffffffffffffffffffffffffff1673ffffffffffffffffffffffffffffffffffffffff1681526020019081526020016000206040518060a00160405280846020015173ffffffffffffffffffffffffffffffffffffffff168152602001846000015173ffffffffffffffffffffffffffffffffffffffff168152602001846040015173ffffffffffffffffffffffffffffffffffffffff168152602001846060015163ffffffff168152602001846080015163ffffffff16815250908060018154018082558091505060019003906000526020600020906003020160009091909190915060008201518160000160006101000a81548173ffffffffffffffffffffffffffffffffffffffff021916908373ffffffffffffffffffffffffffffffffffffffff16021790555060208201518160010160006101000a81548173ffffffffffffffffffffffffffffffffffffffff021916908373ffffffffffffffffffffffffffffffffffffffff16021790555060408201518160020160006101000a81548173ffffffffffffffffffffffffffffffffffffffff021916908373ffffffffffffffffffffffffffffffffffffffff16021790555060608201518160020160146101000a81548163ffffffff021916908363ffffffff16021790555060808201518160020160186101000a81548163ffffffff021916908363ffffffff16021790555050508080612bf490614428565b9150506127c7565b505050505050565b60008181526001830160205260408120548015612ced576000612c286001836143e5565b8554909150600090612c3c906001906143e5565b9050818114612ca1576000866000018281548110612c5c57612c5c614560565b9060005260206000200154905080876000018481548110612c7f57612c7f614560565b6000918252602080832090910192909255918252600188019052604090208390555b8554869080612cb257612cb2614531565b600190038181906000526020600020016000905590558560010160008681526020019081526020016000206000905560019350505050610784565b6000915050610784565b6000826000018281548110612d0e57612d0e614560565b9060005260206000200154905092915050565b6000818152600183016020526040812054612d6857508154600181810184556000848152602080822090930184905584548482528286019093526040902091909155610784565b506000610784565b6000808290508073ffffffffffffffffffffffffffffffffffffffff16630902f1ac6040518163ffffffff1660e01b815260040160606040518083038186803b158015612dbc57600080fd5b505afa925050508015612e0a575060408051601f3d9081017fffffffffffffffffffffffffffffffffffffffffffffffffffffffffffffffe0168201909252612e079181019061423c565b60015b612e1357612fbe565b5050508073ffffffffffffffffffffffffffffffffffffffff16630dfe16816040518163ffffffff1660e01b815260040160206040518083038186803b158015612e5c57600080fd5b505afa925050508015612eaa575060408051601f3d9081017fffffffffffffffffffffffffffffffffffffffffffffffffffffffffffffffe0168201909252612ea791810190613fd6565b60015b612eb357612fbe565b8173ffffffffffffffffffffffffffffffffffffffff1663d21220a76040518163ffffffff1660e01b815260040160206040518083038186803b158015612ef957600080fd5b505afa925050508015612f47575060408051601f3d9081017fffffffffffffffffffffffffffffffffffffffffffffffffffffffffffffffe0168201909252612f4491810190613fd6565b60015b612f5057612fbc565b73ffffffffffffffffffffffffffffffffffffffff948516600090815260046020526040902080549286167fffffffffffffffffffffffff0000000000000000000000000000000000000000938416178155600190810180549290961691909216179093555090919050565b505b50600092915050565b6040805160a08101825260008082526020808301829052828401829052606083018290526080830182905273ffffffffffffffffffffffffffffffffffffffff878116835260088252848320908716835281528382208054855181840281018401909652808652939492939091849084015b828210156130eb5760008481526020908190206040805160a08101825260038602909201805473ffffffffffffffffffffffffffffffffffffffff90811684526001808301548216858701526002909201549081169284019290925263ffffffff74010000000000000000000000000000000000000000830481166060850152780100000000000000000000000000000000000000000000000090920490911660808301529083529092019101613039565b50505050905080516000141561320a576131058585613923565b73ffffffffffffffffffffffffffffffffffffffff8086166000908152600860209081526040808320938816835292815282822080548451818402810184019095528085529092909184015b828210156132035760008481526020908190206040805160a08101825260038602909201805473ffffffffffffffffffffffffffffffffffffffff90811684526001808301548216858701526002909201549081169284019290925263ffffffff74010000000000000000000000000000000000000000830481166060850152780100000000000000000000000000000000000000000000000090920490911660808301529083529092019101613151565b5050505090505b60005b81518110156132ae57600082828151811061322a5761322a614560565b60200260200101519050600073ffffffffffffffffffffffffffffffffffffffff16816040015173ffffffffffffffffffffffffffffffffffffffff16141561328857613281888260000151836020015188612fc7565b975061329b565b613297888260400151876132b9565b8097505b50806132a681614428565b91505061320d565b509495945050505050565b825173ffffffffffffffffffffffffffffffffffffffff16613357576040517f5188d10d00000000000000000000000000000000000000000000000000000000815273ffffffffffffffffffffffffffffffffffffffff83166004820152602481018290523390635188d10d90604401600060405180830381600087803b15801561334357600080fd5b505af1158015611da8573d6000803e3d6000fd5b825173ffffffffffffffffffffffffffffffffffffffff16600114156134425760208301516040517f70a082310000000000000000000000000000000000000000000000000000000081523060048201526104ff91849173ffffffffffffffffffffffffffffffffffffffff909116906370a082319060240160206040518083038186803b1580156133e857600080fd5b505afa1580156133fc573d6000803e3d6000fd5b505050506040513d601f19601f820116820180604052508101906134209190614291565b602086015173ffffffffffffffffffffffffffffffffffffffff169190613896565b826020015173ffffffffffffffffffffffffffffffffffffffff16836000015173ffffffffffffffffffffffffffffffffffffffff1610156136a557600080846040015173ffffffffffffffffffffffffffffffffffffffff16630902f1ac6040518163ffffffff1660e01b815260040160606040518083038186803b1580156134cb57600080fd5b505afa1580156134df573d6000803e3d6000fd5b505050506040513d601f19601f82011682018060405250810190613503919061423c565b50865160408089015190517f70a0823100000000000000000000000000000000000000000000000000000000815273ffffffffffffffffffffffffffffffffffffffff91821660048201526dffffffffffffffffffffffffffff9485169650929093169350849216906370a082319060240160206040518083038186803b15801561358d57600080fd5b505afa1580156135a1573d6000803e3d6000fd5b505050506040513d601f19601f820116820180604052508101906135c59190614291565b6135cf91906143e5565b925060006135f4848484896060015163ffffffff168a6080015163ffffffff16613b9e565b60408088015190517f022c0d9f0000000000000000000000000000000000000000000000000000000081526000600482018190526024820184905273ffffffffffffffffffffffffffffffffffffffff898116604484015260806064840152608483019190915292935091169063022c0d9f9060a4015b600060405180830381600087803b15801561368557600080fd5b505af1158015613699573d6000803e3d6000fd5b50505050505050505050565b600080846040015173ffffffffffffffffffffffffffffffffffffffff16630902f1ac6040518163ffffffff1660e01b815260040160606040518083038186803b1580156136f257600080fd5b505afa158015613706573d6000803e3d6000fd5b505050506040513d601f19601f8201168201806040525081019061372a919061423c565b50865160408089015190517f70a0823100000000000000000000000000000000000000000000000000000000815273ffffffffffffffffffffffffffffffffffffffff91821660048201526dffffffffffffffffffffffffffff9485169650929093169350839216906370a082319060240160206040518083038186803b1580156137b457600080fd5b505afa1580156137c8573d6000803e3d6000fd5b505050506040513d601f19601f820116820180604052508101906137ec9190614291565b6137f691906143e5565b9250600061381b848385896060015163ffffffff168a6080015163ffffffff16613b9e565b60408088015190517f022c0d9f0000000000000000000000000000000000000000000000000000000081526004810183905260006024820181905273ffffffffffffffffffffffffffffffffffffffff898116604484015260806064840152608483019190915292935091169063022c0d9f9060a40161366b565b6040805173ffffffffffffffffffffffffffffffffffffffff8416602482015260448082018490528251808303909101815260649091019091526020810180517bffffffffffffffffffffffffffffffffffffffffffffffffffffffff167fa9059cbb000000000000000000000000000000000000000000000000000000001790526104ff908490613bff565b60095473ffffffffffffffffffffffffffffffffffffffff908116908316811480159061397c57508073ffffffffffffffffffffffffffffffffffffffff168273ffffffffffffffffffffffffffffffffffffffff1614155b6139e2576040517f08c379a000000000000000000000000000000000000000000000000000000000815260206004820152600f60248201527f216e6f20726f75746520666f756e64000000000000000000000000000000000060448201526064016104eb565b60408051600580825260c082019092526000916020820160a0803683370190505090508381600081518110613a1957613a19614560565b602002602001019073ffffffffffffffffffffffffffffffffffffffff16908173ffffffffffffffffffffffffffffffffffffffff1681525050600081600181518110613a6857613a68614560565b602002602001019073ffffffffffffffffffffffffffffffffffffffff16908173ffffffffffffffffffffffffffffffffffffffff16815250508181600281518110613ab657613ab6614560565b602002602001019073ffffffffffffffffffffffffffffffffffffffff16908173ffffffffffffffffffffffffffffffffffffffff1681525050600081600381518110613b0557613b05614560565b602002602001019073ffffffffffffffffffffffffffffffffffffffff16908173ffffffffffffffffffffffffffffffffffffffff16815250508281600481518110613b5357613b53614560565b602002602001019073ffffffffffffffffffffffffffffffffffffffff16908173ffffffffffffffffffffffffffffffffffffffff1681525050613b98848483610f93565b50505050565b600080613bab84886143a8565b90506000613bb986836143a8565b9050600082613bc8868a6143a8565b613bd2919061437c565b90508015613bef57808281613be957613be96144d3565b04613bf2565b60005b9998505050505050505050565b6000613c61826040518060400160405280602081526020017f5361666545524332303a206c6f772d6c6576656c2063616c6c206661696c65648152508573ffffffffffffffffffffffffffffffffffffffff16613d0b9092919063ffffffff16565b8051909150156104ff5780806020019051810190613c7f919061403e565b6104ff576040517f08c379a000000000000000000000000000000000000000000000000000000000815260206004820152602a60248201527f5361666545524332303a204552433230206f7065726174696f6e20646964206e60448201527f6f7420737563636565640000000000000000000000000000000000000000000060648201526084016104eb565b6060613d1a8484600085613d22565b949350505050565b606082471015613db4576040517f08c379a000000000000000000000000000000000000000000000000000000000815260206004820152602660248201527f416464726573733a20696e73756666696369656e742062616c616e636520666f60448201527f722063616c6c000000000000000000000000000000000000000000000000000060648201526084016104eb565b843b613e1c576040517f08c379a000000000000000000000000000000000000000000000000000000000815260206004820152601d60248201527f416464726573733a2063616c6c20746f206e6f6e2d636f6e747261637400000060448201526064016104eb565b6000808673ffffffffffffffffffffffffffffffffffffffff168587604051613e4591906142ce565b60006040518083038185875af1925050503d8060008114613e82576040519150601f19603f3d011682016040523d82523d6000602084013e613e87565b606091505b5091509150613e97828286613ea2565b979650505050505050565b60608315613eb15750816110d2565b825115613ec15782518084602001fd5b816040517f08c379a00000000000000000000000000000000000000000000000000000000081526004016104eb919061432b565b5080546000825560030290600052602060002090810190613f169190613f19565b50565b5b80821115613f875780547fffffffffffffffffffffffff0000000000000000000000000000000000000000908116825560018201805490911690556002810180547fffffffff00000000000000000000000000000000000000000000000000000000169055600301613f1a565b5090565b8035613f96816145be565b919050565b80516dffffffffffffffffffffffffffff81168114613f9657600080fd5b600060208284031215613fcb57600080fd5b81356110d2816145be565b600060208284031215613fe857600080fd5b81516110d2816145be565b60008060006060848603121561400857600080fd5b8335614013816145be565b92506020840135614023816145e0565b91506040840135614033816145e0565b809150509250925092565b60006020828403121561405057600080fd5b815180151581146110d257600080fd5b6000806040838503121561407357600080fd5b823561407e816145be565b9150602083013561408e816145be565b809150509250929050565b600080600080608085870312156140af57600080fd5b84356140ba816145be565b935060208501356140ca816145be565b925060408501356140da816145be565b9396929550929360600135925050565b6000806000606084860312156140ff57600080fd5b833561410a816145be565b925060208481013561411b816145be565b9250604085013567ffffffffffffffff8082111561413857600080fd5b818701915087601f83011261414c57600080fd5b81358181111561415e5761415e61458f565b8060051b6040517fffffffffffffffffffffffffffffffffffffffffffffffffffffffffffffffe0603f830116810181811085821117156141a1576141a161458f565b604052828152858101935084860182860187018c10156141c057600080fd5b600095505b838610156141ea576141d681613f8b565b8552600195909501949386019386016141c5565b508096505050505050509250925092565b60008060006060848603121561421057600080fd5b833561421b816145be565b9250602084013561422b816145be565b929592945050506040919091013590565b60008060006060848603121561425157600080fd5b61425a84613f9b565b925061426860208501613f9b565b91506040840151614033816145e0565b60006020828403121561428a57600080fd5b5035919050565b6000602082840312156142a357600080fd5b5051919050565b600080604083850312156142bd57600080fd5b505080516020909101519092909150565b600082516142e08184602087016143fc565b9190910192915050565b6020810160058310614325577f4e487b7100000000000000000000000000000000000000000000000000000000600052602160045260246000fd5b91905290565b602081526000825180602084015261434a8160408501602087016143fc565b601f017fffffffffffffffffffffffffffffffffffffffffffffffffffffffffffffffe0169190910160400192915050565b6000821982111561438f5761438f6144a4565b500190565b6000826143a3576143a36144d3565b500490565b6000817fffffffffffffffffffffffffffffffffffffffffffffffffffffffffffffffff04831182151516156143e0576143e06144a4565b500290565b6000828210156143f7576143f76144a4565b500390565b60005b838110156144175781810151838201526020016143ff565b83811115613b985750506000910152565b60007fffffffffffffffffffffffffffffffffffffffffffffffffffffffffffffffff82141561445a5761445a6144a4565b5060010190565b600082614470576144706144d3565b500690565b7f4e487b7100000000000000000000000000000000000000000000000000000000600052600160045260246000fd5b7f4e487b7100000000000000000000000000000000000000000000000000000000600052601160045260246000fd5b7f4e487b7100000000000000000000000000000000000000000000000000000000600052601260045260246000fd5b7f4e487b7100000000000000000000000000000000000000000000000000000000600052602160045260246000fd5b7f4e487b7100000000000000000000000000000000000000000000000000000000600052603160045260246000fd5b7f4e487b7100000000000000000000000000000000000000000000000000000000600052603260045260246000fd5b7f4e487b7100000000000000000000000000000000000000000000000000000000600052604160045260246000fd5b73ffffffffffffffffffffffffffffffffffffffff81168114613f1657600080fd5b63ffffffff81168114613f1657600080fdfea264697066735822122092766d55667798af186e0af93aebed3b9a68a8359b989913a894f1b70d413de964736f6c63430008060033",
  "devdoc": {
    "kind": "dev",
    "methods": {
      "convertERC20(address,address,address,uint256)": {
        "details": "Switches over the different routing types to let the specific handler functions take care of them.",
        "params": {
          "amount": "The amount that the zapper should take from the `msg.sender` and swap.",
          "fromToken": "The token to take from `msg.sender` and exchange for `toToken`.",
          "recipient": "The destination address to receive the `toToken`.",
          "toToken": "The token that will be bought and sent to the recipient."
        }
      },
      "owner()": {
        "details": "Returns the address of the current owner."
      },
      "renounceOwnership()": {
        "details": "Leaves the contract without owner. It will not be possible to call `onlyOwner` functions anymore. Can only be called by the current owner. NOTE: Renouncing ownership will leave the contract without an owner, thereby removing any functionality that is only available to the owner."
      },
      "setFactory(address,uint32,uint32)": {
        "details": "Adds a factory to the list of registered factories that can be used within RouteSpec."
      },
      "setMainToken(address)": {
        "details": "Updates the main token, this is used for automatic route tunneling."
      },
      "setPendingOwner(address)": {
        "details": "Sets the pendingOwner, ownership is only transferred when they call transferOwnership. Can only be called by the current owner."
      },
      "setRoute(address,address,address[])": {
        "params": {
          "from": "the token to swap from.",
          "inputRoute": "A route in RouteSpec notation indicating the swap steps and the uniswap like factories these swaps should be made.",
          "to": "the token to swap to."
        }
      },
      "transferOwnership()": {
        "details": "Transfers ownership of the contract to the pendingOwner. Can only be called by the pendingOwner."
      }
    },
    "stateVariables": {
      "factories": {
        "details": "Factory address to the specification of the factory including it's fee structure."
      },
      "factorySet": {
        "details": "An enumerable list of all registered factories."
      },
      "mainToken": {
        "details": "The main token most AMMs and pairs use, eg. WETH."
      },
      "pairInfo": {
        "details": "The token0 and token1 of the pair if the pair has been registered."
      },
      "routes": {
        "details": "For any registered from and to pair, provide a route used by the algorithm to execute the swap."
      },
      "tokenSwapType": {
        "details": "represents the swap type of the route from token0 to token1, for example TOKEN_TO_PAIR."
      }
    },
    "version": 1
  },
  "userdoc": {
    "kind": "user",
    "methods": {
      "convertERC20(address,address,address,uint256)": {
        "notice": "Swap `amount` of `fromToken` to `toToken` and send them to the recipient.The `fromToken` and `toToken` arguments can be AMM pairs.Requires `msg.sender` to be a Zap instance."
      },
      "factoryLength()": {
        "notice": "Returns the total number of registered factories."
      },
      "getFactory(uint256)": {
        "notice": "Gets a registered factory at a specific index, use factoryLength() for the upper bound."
      },
      "removeFactory(address)": {
        "notice": "Removes a factory from the list of registered factories."
      },
      "routeLength(address,address)": {
        "notice": "Returns the number of steps on the route from token0 to token1."
      },
      "setRoute(address,address,address[])": {
        "notice": "Generates and saves a route (and inverse of this route) based on the RouteSpec encoded `inputRoute`."
      }
    },
    "notice": "The ZapHandlerV1 is the first implementation of the Violin Zap protocol.It allows the owner to define routes that span over multiple uniswap factories.Furthermore, individual hops in the route can set the zero factory to indicate that this hop should be subroutes by an existing route in the handler.All though routes need to be added manually, swaps from token a to token b will create the route [a, main, b] if the main token is set.The ZapHandlerV1 supports token->token, pair->token and token->pair swaps.For pair->token swaps, the pair will first be burned and then two swaps to token are made.For token->pair swaps, two swaps to each subtoken are made and then the pair is minted.",
    "version": 1
  },
  "storageLayout": {
    "storage": [
      {
        "astId": 5292,
        "contract": "contracts/ZapHandlerV1.sol:ZapHandlerV1",
        "label": "_owner",
        "offset": 0,
        "slot": "0",
        "type": "t_address"
      },
      {
        "astId": 5294,
        "contract": "contracts/ZapHandlerV1.sol:ZapHandlerV1",
        "label": "pendingOwner",
        "offset": 0,
        "slot": "1",
        "type": "t_address"
      },
      {
        "astId": 594,
        "contract": "contracts/ZapHandlerV1.sol:ZapHandlerV1",
        "label": "_status",
        "offset": 0,
        "slot": "2",
        "type": "t_uint256"
      },
      {
        "astId": 3514,
        "contract": "contracts/ZapHandlerV1.sol:ZapHandlerV1",
        "label": "tokenSwapType",
        "offset": 0,
        "slot": "3",
        "type": "t_mapping(t_contract(IERC20)1247,t_mapping(t_contract(IERC20)1247,t_enum(SwapType)3504))"
      },
      {
        "astId": 3528,
        "contract": "contracts/ZapHandlerV1.sol:ZapHandlerV1",
        "label": "pairInfo",
        "offset": 0,
        "slot": "4",
        "type": "t_mapping(t_contract(IERC20)1247,t_struct(PairInfo)3521_storage)"
      },
      {
        "astId": 3542,
        "contract": "contracts/ZapHandlerV1.sol:ZapHandlerV1",
        "label": "factorySet",
        "offset": 0,
        "slot": "5",
        "type": "t_struct(AddressSet)2366_storage"
      },
      {
        "astId": 3548,
        "contract": "contracts/ZapHandlerV1.sol:ZapHandlerV1",
        "label": "factories",
        "offset": 0,
        "slot": "7",
        "type": "t_mapping(t_address,t_struct(Factory)3538_storage)"
      },
      {
        "astId": 3578,
        "contract": "contracts/ZapHandlerV1.sol:ZapHandlerV1",
        "label": "routes",
        "offset": 0,
        "slot": "8",
        "type": "t_mapping(t_contract(IERC20)1247,t_mapping(t_contract(IERC20)1247,t_array(t_struct(RouteStep)3567_storage)dyn_storage))"
      },
      {
        "astId": 3582,
        "contract": "contracts/ZapHandlerV1.sol:ZapHandlerV1",
        "label": "mainToken",
        "offset": 0,
        "slot": "9",
        "type": "t_contract(IERC20)1247"
      }
    ],
    "types": {
      "t_address": {
        "encoding": "inplace",
        "label": "address",
        "numberOfBytes": "20"
      },
      "t_array(t_bytes32)dyn_storage": {
        "base": "t_bytes32",
        "encoding": "dynamic_array",
        "label": "bytes32[]",
        "numberOfBytes": "32"
      },
      "t_array(t_struct(RouteStep)3567_storage)dyn_storage": {
        "base": "t_struct(RouteStep)3567_storage",
        "encoding": "dynamic_array",
        "label": "struct ZapHandlerV1.RouteStep[]",
        "numberOfBytes": "32"
      },
      "t_bytes32": {
        "encoding": "inplace",
        "label": "bytes32",
        "numberOfBytes": "32"
      },
      "t_contract(IERC20)1247": {
        "encoding": "inplace",
        "label": "contract IERC20",
        "numberOfBytes": "20"
      },
      "t_contract(IUniswapV2Pair)2958": {
        "encoding": "inplace",
        "label": "contract IUniswapV2Pair",
        "numberOfBytes": "20"
      },
      "t_enum(SwapType)3504": {
        "encoding": "inplace",
        "label": "enum ZapHandlerV1.SwapType",
        "numberOfBytes": "1"
      },
      "t_mapping(t_address,t_struct(Factory)3538_storage)": {
        "encoding": "mapping",
        "key": "t_address",
        "label": "mapping(address => struct ZapHandlerV1.Factory)",
        "numberOfBytes": "32",
        "value": "t_struct(Factory)3538_storage"
      },
      "t_mapping(t_bytes32,t_uint256)": {
        "encoding": "mapping",
        "key": "t_bytes32",
        "label": "mapping(bytes32 => uint256)",
        "numberOfBytes": "32",
        "value": "t_uint256"
      },
      "t_mapping(t_contract(IERC20)1247,t_array(t_struct(RouteStep)3567_storage)dyn_storage)": {
        "encoding": "mapping",
        "key": "t_contract(IERC20)1247",
        "label": "mapping(contract IERC20 => struct ZapHandlerV1.RouteStep[])",
        "numberOfBytes": "32",
        "value": "t_array(t_struct(RouteStep)3567_storage)dyn_storage"
      },
      "t_mapping(t_contract(IERC20)1247,t_enum(SwapType)3504)": {
        "encoding": "mapping",
        "key": "t_contract(IERC20)1247",
        "label": "mapping(contract IERC20 => enum ZapHandlerV1.SwapType)",
        "numberOfBytes": "32",
        "value": "t_enum(SwapType)3504"
      },
      "t_mapping(t_contract(IERC20)1247,t_mapping(t_contract(IERC20)1247,t_array(t_struct(RouteStep)3567_storage)dyn_storage))": {
        "encoding": "mapping",
        "key": "t_contract(IERC20)1247",
        "label": "mapping(contract IERC20 => mapping(contract IERC20 => struct ZapHandlerV1.RouteStep[]))",
        "numberOfBytes": "32",
        "value": "t_mapping(t_contract(IERC20)1247,t_array(t_struct(RouteStep)3567_storage)dyn_storage)"
      },
      "t_mapping(t_contract(IERC20)1247,t_mapping(t_contract(IERC20)1247,t_enum(SwapType)3504))": {
        "encoding": "mapping",
        "key": "t_contract(IERC20)1247",
        "label": "mapping(contract IERC20 => mapping(contract IERC20 => enum ZapHandlerV1.SwapType))",
        "numberOfBytes": "32",
        "value": "t_mapping(t_contract(IERC20)1247,t_enum(SwapType)3504)"
      },
      "t_mapping(t_contract(IERC20)1247,t_struct(PairInfo)3521_storage)": {
        "encoding": "mapping",
        "key": "t_contract(IERC20)1247",
        "label": "mapping(contract IERC20 => struct ZapHandlerV1.PairInfo)",
        "numberOfBytes": "32",
        "value": "t_struct(PairInfo)3521_storage"
      },
      "t_struct(AddressSet)2366_storage": {
        "encoding": "inplace",
        "label": "struct EnumerableSet.AddressSet",
        "members": [
          {
            "astId": 2365,
            "contract": "contracts/ZapHandlerV1.sol:ZapHandlerV1",
            "label": "_inner",
            "offset": 0,
            "slot": "0",
            "type": "t_struct(Set)2065_storage"
          }
        ],
        "numberOfBytes": "64"
      },
      "t_struct(Factory)3538_storage": {
        "encoding": "inplace",
        "label": "struct ZapHandlerV1.Factory",
        "members": [
          {
            "astId": 3531,
            "contract": "contracts/ZapHandlerV1.sol:ZapHandlerV1",
            "label": "factory",
            "offset": 0,
            "slot": "0",
            "type": "t_address"
          },
          {
            "astId": 3534,
            "contract": "contracts/ZapHandlerV1.sol:ZapHandlerV1",
            "label": "amountsOutNominator",
            "offset": 20,
            "slot": "0",
            "type": "t_uint32"
          },
          {
            "astId": 3537,
            "contract": "contracts/ZapHandlerV1.sol:ZapHandlerV1",
            "label": "amountsOutDenominator",
            "offset": 24,
            "slot": "0",
            "type": "t_uint32"
          }
        ],
        "numberOfBytes": "32"
      },
      "t_struct(PairInfo)3521_storage": {
        "encoding": "inplace",
        "label": "struct ZapHandlerV1.PairInfo",
        "members": [
          {
            "astId": 3517,
            "contract": "contracts/ZapHandlerV1.sol:ZapHandlerV1",
            "label": "token0",
            "offset": 0,
            "slot": "0",
            "type": "t_contract(IERC20)1247"
          },
          {
            "astId": 3520,
            "contract": "contracts/ZapHandlerV1.sol:ZapHandlerV1",
            "label": "token1",
            "offset": 0,
            "slot": "1",
            "type": "t_contract(IERC20)1247"
          }
        ],
        "numberOfBytes": "64"
      },
      "t_struct(RouteStep)3567_storage": {
        "encoding": "inplace",
        "label": "struct ZapHandlerV1.RouteStep",
        "members": [
          {
            "astId": 3552,
            "contract": "contracts/ZapHandlerV1.sol:ZapHandlerV1",
            "label": "from",
            "offset": 0,
            "slot": "0",
            "type": "t_contract(IERC20)1247"
          },
          {
            "astId": 3556,
            "contract": "contracts/ZapHandlerV1.sol:ZapHandlerV1",
            "label": "to",
            "offset": 0,
            "slot": "1",
            "type": "t_contract(IERC20)1247"
          },
          {
            "astId": 3560,
            "contract": "contracts/ZapHandlerV1.sol:ZapHandlerV1",
            "label": "pair",
            "offset": 0,
            "slot": "2",
            "type": "t_contract(IUniswapV2Pair)2958"
          },
          {
            "astId": 3563,
            "contract": "contracts/ZapHandlerV1.sol:ZapHandlerV1",
            "label": "amountsOutNominator",
            "offset": 20,
            "slot": "2",
            "type": "t_uint32"
          },
          {
            "astId": 3566,
            "contract": "contracts/ZapHandlerV1.sol:ZapHandlerV1",
            "label": "amountsOutDenominator",
            "offset": 24,
            "slot": "2",
            "type": "t_uint32"
          }
        ],
        "numberOfBytes": "96"
      },
      "t_struct(Set)2065_storage": {
        "encoding": "inplace",
        "label": "struct EnumerableSet.Set",
        "members": [
          {
            "astId": 2060,
            "contract": "contracts/ZapHandlerV1.sol:ZapHandlerV1",
            "label": "_values",
            "offset": 0,
            "slot": "0",
            "type": "t_array(t_bytes32)dyn_storage"
          },
          {
            "astId": 2064,
            "contract": "contracts/ZapHandlerV1.sol:ZapHandlerV1",
            "label": "_indexes",
            "offset": 0,
            "slot": "1",
            "type": "t_mapping(t_bytes32,t_uint256)"
          }
        ],
        "numberOfBytes": "64"
      },
      "t_uint256": {
        "encoding": "inplace",
        "label": "uint256",
        "numberOfBytes": "32"
      },
      "t_uint32": {
        "encoding": "inplace",
        "label": "uint32",
        "numberOfBytes": "4"
      }
    }
  }
}