{
  "address": "0x1871A28A0336B7E974faa5c0880b832A2E257CcB",
  "abi": [
    {
      "anonymous": false,
      "inputs": [
        {
          "indexed": true,
          "internalType": "contract IZapHandler",
          "name": "oldImplementation",
          "type": "address"
        },
        {
          "indexed": true,
          "internalType": "contract IZapHandler",
          "name": "newImplementation",
          "type": "address"
        }
      ],
      "name": "ImplementationChanged",
      "type": "event"
    },
    {
      "anonymous": false,
      "inputs": [
        {
          "indexed": true,
          "internalType": "address",
          "name": "previousOwner",
          "type": "address"
        },
        {
          "indexed": true,
          "internalType": "address",
          "name": "newOwner",
          "type": "address"
        }
      ],
      "name": "OwnershipTransferred",
      "type": "event"
    },
    {
      "anonymous": false,
      "inputs": [
        {
          "indexed": true,
          "internalType": "address",
          "name": "previousPendingOwner",
          "type": "address"
        },
        {
          "indexed": true,
          "internalType": "address",
          "name": "newPendingOwner",
          "type": "address"
        }
      ],
      "name": "PendingOwnershipTransferred",
      "type": "event"
    },
    {
      "inputs": [],
      "name": "from",
      "outputs": [
        {
          "internalType": "address",
          "name": "",
          "type": "address"
        }
      ],
      "stateMutability": "view",
      "type": "function"
    },
    {
      "inputs": [],
      "name": "implementation",
      "outputs": [
        {
          "internalType": "contract IZapHandler",
          "name": "",
          "type": "address"
        }
      ],
      "stateMutability": "view",
      "type": "function"
    },
    {
      "inputs": [],
      "name": "owner",
      "outputs": [
        {
          "internalType": "address",
          "name": "",
          "type": "address"
        }
      ],
      "stateMutability": "view",
      "type": "function"
    },
    {
      "inputs": [],
      "name": "pendingOwner",
      "outputs": [
        {
          "internalType": "address",
          "name": "",
          "type": "address"
        }
      ],
      "stateMutability": "view",
      "type": "function"
    },
    {
      "inputs": [],
      "name": "pendingToken",
      "outputs": [
        {
          "internalType": "contract IERC20",
          "name": "",
          "type": "address"
        }
      ],
      "stateMutability": "view",
      "type": "function"
    },
    {
      "inputs": [
        {
          "internalType": "address",
          "name": "to",
          "type": "address"
        },
        {
          "internalType": "uint256",
          "name": "amount",
          "type": "uint256"
        }
      ],
      "name": "pullAmountTo",
      "outputs": [],
      "stateMutability": "nonpayable",
      "type": "function"
    },
    {
      "inputs": [
        {
          "internalType": "address",
          "name": "to",
          "type": "address"
        }
      ],
      "name": "pullTo",
      "outputs": [],
      "stateMutability": "nonpayable",
      "type": "function"
    },
    {
      "inputs": [],
      "name": "remaining",
      "outputs": [
        {
          "internalType": "uint256",
          "name": "",
          "type": "uint256"
        }
      ],
      "stateMutability": "view",
      "type": "function"
    },
    {
      "inputs": [],
      "name": "renounceOwnership",
      "outputs": [],
      "stateMutability": "nonpayable",
      "type": "function"
    },
    {
      "inputs": [
        {
          "internalType": "contract IZapHandler",
          "name": "_implementation",
          "type": "address"
        }
      ],
      "name": "setImplementation",
      "outputs": [],
      "stateMutability": "nonpayable",
      "type": "function"
    },
    {
      "inputs": [
        {
          "internalType": "address",
          "name": "newPendingOwner",
          "type": "address"
        }
      ],
      "name": "setPendingOwner",
      "outputs": [],
      "stateMutability": "nonpayable",
      "type": "function"
    },
    {
      "inputs": [],
      "name": "transferOwnership",
      "outputs": [],
      "stateMutability": "nonpayable",
      "type": "function"
    },
    {
      "inputs": [
        {
          "internalType": "contract IERC20",
          "name": "fromToken",
          "type": "address"
        },
        {
          "internalType": "contract IERC20",
          "name": "toToken",
          "type": "address"
        },
        {
          "internalType": "uint256",
          "name": "amount",
          "type": "uint256"
        },
        {
          "internalType": "uint256",
          "name": "minReceived",
          "type": "uint256"
        }
      ],
      "name": "zapERC20",
      "outputs": [
        {
          "internalType": "uint256",
          "name": "received",
          "type": "uint256"
        }
      ],
      "stateMutability": "nonpayable",
      "type": "function"
    }
  ],
  "transactionHash": "0x94b22791661d2434ccf69a8e8bbdb615f0b30ca2c3e2c749fda64dc29518c504",
  "args": [],
  "solcInputHash": "c271f0afa7a646b4a66756ecac278881",
  "bytecode": "0x6080604052600380546001600160a01b031916600190811790915560055534801561002957600080fd5b5061003333610038565b610092565b600180546001600160a01b0319908116909155600080546001600160a01b03848116938216841783556040519116929183917f8be0079c531659141344cd1fd0a4f28419497f9722a3daafe3b4186f6b6457e09190a35050565b610cf7806100a16000396000f3fe608060405234801561001057600080fd5b50600436106100cf5760003560e01c80638da5cb5b1161008c578063c42069ec11610066578063c42069ec1461018a578063d5ce33891461019d578063d784d426146101b0578063e30c3978146101c357600080fd5b80638da5cb5b14610153578063ae1b6e1714610164578063ba447a1d1461017757600080fd5b80633adfd5a6146100d45780635188d10d146100e957806355234ec0146100fc5780635c60da1b14610118578063715018a614610143578063880ad0af1461014b575b600080fd5b6100e76100e2366004610aea565b6101d6565b005b6100e76100f7366004610b07565b610262565b61010560055481565b6040519081526020015b60405180910390f35b60025461012b906001600160a01b031681565b6040516001600160a01b03909116815260200161010f565b6100e7610320565b6100e7610356565b6000546001600160a01b031661012b565b60045461012b906001600160a01b031681565b610105610185366004610b55565b610445565b6100e7610198366004610aea565b61069e565b60035461012b906001600160a01b031681565b6100e76101be366004610aea565b61071a565b60015461012b906001600160a01b031681565b6002546001600160a01b031633146102275760405162461bcd60e51b815260206004820152600f60248201526e10b4b6b83632b6b2b73a30ba34b7b760891b60448201526064015b60405180910390fd5b600060016005546102389190610c50565b600160055560035460045491925061025e916001600160a01b03908116911684846107df565b5050565b6002546001600160a01b031633146102ae5760405162461bcd60e51b815260206004820152600f60248201526e10b4b6b83632b6b2b73a30ba34b7b760891b604482015260640161021e565b6001816005546102be9190610c50565b10156102f95760405162461bcd60e51b815260206004820152600a602482015269085bdd995c991c98599d60b21b604482015260640161021e565b60058054829003905560035460045461025e916001600160a01b03918216911684846107df565b6000546001600160a01b0316331461034a5760405162461bcd60e51b815260040161021e90610c03565b610354600061083f565b565b6001546001600160a01b0316336001600160a01b0316146103c95760405162461bcd60e51b815260206004820152602760248201527f4f776e61626c653a2063616c6c6572206973206e6f74207468652070656e64696044820152663733a7bbb732b960c91b606482015260840161021e565b6001546001600160a01b03166104305760405162461bcd60e51b815260206004820152602660248201527f4f776e61626c653a206e6577206f776e657220697320746865207a65726f206160448201526564647265737360d01b606482015260840161021e565b600154610354906001600160a01b031661083f565b6003546000906001600160a01b03166001146104915760405162461bcd60e51b815260206004820152600b60248201526a217265656e7472616e637960a81b604482015260640161021e565b60038054336001600160a01b031991821617909155600480549091166001600160a01b0387161790556104c5836001610c38565b6005556040516370a0823160e01b81523360048201526000906001600160a01b038616906370a082319060240160206040518083038186803b15801561050a57600080fd5b505afa15801561051e573d6000803e3d6000fd5b505050506040513d601f19601f820116820180604052508101906105429190610b9b565b600254604051630b9214f960e01b81526001600160a01b0389811660048301528881166024830152336044830152929350911690630b9214f990606401600060405180830381600087803b15801561059957600080fd5b505af11580156105ad573d6000803e3d6000fd5b5050600380546001600160a01b031916600117905550506040516370a0823160e01b815233600482015260009082906001600160a01b038816906370a082319060240160206040518083038186803b15801561060857600080fd5b505afa15801561061c573d6000803e3d6000fd5b505050506040513d601f19601f820116820180604052508101906106409190610b9b565b61064a9190610c50565b9050838110156106945760405162461bcd60e51b8152602060048201526015602482015274085b5a5b9a5b5d5b481b9bdd081c9958d95a5d9959605a1b604482015260640161021e565b9695505050505050565b6000546001600160a01b031633146106c85760405162461bcd60e51b815260040161021e90610c03565b600180546001600160a01b038381166001600160a01b0319831681179093556040519116919082907f1e1c2f9f5b763f63f56cae5a9a406c263521f324917ae0fe29e5cf9955e81ec890600090a35050565b6003546001600160a01b03166001146107635760405162461bcd60e51b815260206004820152600b60248201526a217265656e7472616e637960a81b604482015260640161021e565b6000546001600160a01b0316331461078d5760405162461bcd60e51b815260040161021e90610c03565b600280546001600160a01b038381166001600160a01b0319831681179093556040519116919082907fcfbf4028add9318bbf716f08c348595afb063b0e9feed1f86d33681a4b3ed4d390600090a35050565b604080516001600160a01b0385811660248301528416604482015260648082018490528251808303909101815260849091019091526020810180516001600160e01b03166323b872dd60e01b179052610839908590610899565b50505050565b600180546001600160a01b0319908116909155600080546001600160a01b03848116938216841783556040519116929183917f8be0079c531659141344cd1fd0a4f28419497f9722a3daafe3b4186f6b6457e09190a35050565b60006108ee826040518060400160405280602081526020017f5361666545524332303a206c6f772d6c6576656c2063616c6c206661696c6564815250856001600160a01b03166109709092919063ffffffff16565b80519091501561096b578080602001905181019061090c9190610b33565b61096b5760405162461bcd60e51b815260206004820152602a60248201527f5361666545524332303a204552433230206f7065726174696f6e20646964206e6044820152691bdd081cdd58d8d9595960b21b606482015260840161021e565b505050565b606061097f8484600085610989565b90505b9392505050565b6060824710156109ea5760405162461bcd60e51b815260206004820152602660248201527f416464726573733a20696e73756666696369656e742062616c616e636520666f6044820152651c8818d85b1b60d21b606482015260840161021e565b843b610a385760405162461bcd60e51b815260206004820152601d60248201527f416464726573733a2063616c6c20746f206e6f6e2d636f6e7472616374000000604482015260640161021e565b600080866001600160a01b03168587604051610a549190610bb4565b60006040518083038185875af1925050503d8060008114610a91576040519150601f19603f3d011682016040523d82523d6000602084013e610a96565b606091505b5091509150610aa6828286610ab1565b979650505050505050565b60608315610ac0575081610982565b825115610ad05782518084602001fd5b8160405162461bcd60e51b815260040161021e9190610bd0565b600060208284031215610afc57600080fd5b813561098281610ca9565b60008060408385031215610b1a57600080fd5b8235610b2581610ca9565b946020939093013593505050565b600060208284031215610b4557600080fd5b8151801515811461098257600080fd5b60008060008060808587031215610b6b57600080fd5b8435610b7681610ca9565b93506020850135610b8681610ca9565b93969395505050506040820135916060013590565b600060208284031215610bad57600080fd5b5051919050565b60008251610bc6818460208701610c67565b9190910192915050565b6020815260008251806020840152610bef816040850160208701610c67565b601f01601f19169190910160400192915050565b6020808252818101527f4f776e61626c653a2063616c6c6572206973206e6f7420746865206f776e6572604082015260600190565b60008219821115610c4b57610c4b610c93565b500190565b600082821015610c6257610c62610c93565b500390565b60005b83811015610c82578181015183820152602001610c6a565b838111156108395750506000910152565b634e487b7160e01b600052601160045260246000fd5b6001600160a01b0381168114610cbe57600080fd5b5056fea26469706673582212205368632daa15b3f94500bf574374d66e4b419eaed62cf04582e0de876ee657c664736f6c63430008060033",
  "devdoc": {
    "kind": "dev",
    "methods": {
      "owner()": {
        "details": "Returns the address of the current owner."
      },
      "renounceOwnership()": {
        "details": "Leaves the contract without owner. It will not be possible to call `onlyOwner` functions anymore. Can only be called by the current owner. NOTE: Renouncing ownership will leave the contract without an owner, thereby removing any functionality that is only available to the owner."
      },
      "setPendingOwner(address)": {
        "details": "Sets the pendingOwner, ownership is only transferred when they call transferOwnership. Can only be called by the current owner."
      },
      "transferOwnership()": {
        "details": "Transfers ownership of the contract to the pendingOwner. Can only be called by the pendingOwner."
      }
    },
    "version": 1
  },
  "userdoc": {
    "kind": "user",
    "methods": {},
    "version": 1
  },
  "storageLayout": {
    "storage": [
      {
        "astId": 3274,
        "contract": "contracts/Zap.sol:Zap",
        "label": "_owner",
        "offset": 0,
        "slot": "0",
        "type": "t_address"
      },
      {
        "astId": 3276,
        "contract": "contracts/Zap.sol:Zap",
        "label": "pendingOwner",
        "offset": 0,
        "slot": "1",
        "type": "t_address"
      },
      {
        "astId": 2152,
        "contract": "contracts/Zap.sol:Zap",
        "label": "implementation",
        "offset": 0,
        "slot": "2",
        "type": "t_contract(IZapHandler)3458"
      },
      {
        "astId": 2158,
        "contract": "contracts/Zap.sol:Zap",
        "label": "from",
        "offset": 0,
        "slot": "3",
        "type": "t_address"
      },
      {
        "astId": 2161,
        "contract": "contracts/Zap.sol:Zap",
        "label": "pendingToken",
        "offset": 0,
        "slot": "4",
        "type": "t_contract(IERC20)663"
      },
      {
        "astId": 2164,
        "contract": "contracts/Zap.sol:Zap",
        "label": "remaining",
        "offset": 0,
        "slot": "5",
        "type": "t_uint256"
      }
    ],
    "types": {
      "t_address": {
        "encoding": "inplace",
        "label": "address",
        "numberOfBytes": "20"
      },
      "t_contract(IERC20)663": {
        "encoding": "inplace",
        "label": "contract IERC20",
        "numberOfBytes": "20"
      },
      "t_contract(IZapHandler)3458": {
        "encoding": "inplace",
        "label": "contract IZapHandler",
        "numberOfBytes": "20"
      },
      "t_uint256": {
        "encoding": "inplace",
        "label": "uint256",
        "numberOfBytes": "32"
      }
    }
  }
}