{
  "address": "0xce529d6b93ad13d938B08ddDAA7Bc90374C5785c",
  "abi": [
    {
      "anonymous": false,
      "inputs": [
        {
          "indexed": true,
          "internalType": "address",
          "name": "factory",
          "type": "address"
        }
      ],
      "name": "FactoryRemoved",
      "type": "event"
    },
    {
      "anonymous": false,
      "inputs": [
        {
          "indexed": true,
          "internalType": "address",
          "name": "factory",
          "type": "address"
        },
        {
          "indexed": true,
          "internalType": "bool",
          "name": "alreadyExists",
          "type": "bool"
        },
        {
          "indexed": false,
          "internalType": "uint32",
          "name": "amountsOutNominator",
          "type": "uint32"
        },
        {
          "indexed": false,
          "internalType": "uint32",
          "name": "amountsOutDenominator",
          "type": "uint32"
        }
      ],
      "name": "FactorySet",
      "type": "event"
    },
    {
      "anonymous": false,
      "inputs": [
        {
          "indexed": true,
          "internalType": "address",
          "name": "previousOwner",
          "type": "address"
        },
        {
          "indexed": true,
          "internalType": "address",
          "name": "newOwner",
          "type": "address"
        }
      ],
      "name": "OwnershipTransferred",
      "type": "event"
    },
    {
      "anonymous": false,
      "inputs": [
        {
          "indexed": true,
          "internalType": "address",
          "name": "previousPendingOwner",
          "type": "address"
        },
        {
          "indexed": true,
          "internalType": "address",
          "name": "newPendingOwner",
          "type": "address"
        }
      ],
      "name": "PendingOwnershipTransferred",
      "type": "event"
    },
    {
      "anonymous": false,
      "inputs": [
        {
          "indexed": true,
          "internalType": "contract IERC20",
          "name": "from",
          "type": "address"
        },
        {
          "indexed": true,
          "internalType": "contract IERC20",
          "name": "to",
          "type": "address"
        },
        {
          "indexed": true,
          "internalType": "bool",
          "name": "alreadyExists",
          "type": "bool"
        }
      ],
      "name": "RouteAdded",
      "type": "event"
    },
    {
      "inputs": [
        {
          "internalType": "contract IERC20",
          "name": "fromToken",
          "type": "address"
        },
        {
          "internalType": "contract IERC20",
          "name": "toToken",
          "type": "address"
        },
        {
          "internalType": "address",
          "name": "recipient",
          "type": "address"
        }
      ],
      "name": "convertERC20",
      "outputs": [],
      "stateMutability": "nonpayable",
      "type": "function"
    },
    {
      "inputs": [
        {
          "internalType": "address",
          "name": "",
          "type": "address"
        }
      ],
      "name": "factories",
      "outputs": [
        {
          "internalType": "address",
          "name": "factory",
          "type": "address"
        },
        {
          "internalType": "uint32",
          "name": "amountsOutNominator",
          "type": "uint32"
        },
        {
          "internalType": "uint32",
          "name": "amountsOutDenominator",
          "type": "uint32"
        }
      ],
      "stateMutability": "view",
      "type": "function"
    },
    {
      "inputs": [],
      "name": "factoryLength",
      "outputs": [
        {
          "internalType": "uint256",
          "name": "",
          "type": "uint256"
        }
      ],
      "stateMutability": "view",
      "type": "function"
    },
    {
      "inputs": [
        {
          "internalType": "uint256",
          "name": "index",
          "type": "uint256"
        }
      ],
      "name": "getFactory",
      "outputs": [
        {
          "internalType": "address",
          "name": "",
          "type": "address"
        }
      ],
      "stateMutability": "view",
      "type": "function"
    },
    {
      "inputs": [],
      "name": "owner",
      "outputs": [
        {
          "internalType": "address",
          "name": "",
          "type": "address"
        }
      ],
      "stateMutability": "view",
      "type": "function"
    },
    {
      "inputs": [],
      "name": "pendingOwner",
      "outputs": [
        {
          "internalType": "address",
          "name": "",
          "type": "address"
        }
      ],
      "stateMutability": "view",
      "type": "function"
    },
    {
      "inputs": [
        {
          "internalType": "address",
          "name": "factory",
          "type": "address"
        }
      ],
      "name": "removeFactory",
      "outputs": [],
      "stateMutability": "nonpayable",
      "type": "function"
    },
    {
      "inputs": [],
      "name": "renounceOwnership",
      "outputs": [],
      "stateMutability": "nonpayable",
      "type": "function"
    },
    {
      "inputs": [
        {
          "internalType": "contract IERC20",
          "name": "token0",
          "type": "address"
        },
        {
          "internalType": "contract IERC20",
          "name": "token1",
          "type": "address"
        }
      ],
      "name": "routeLength",
      "outputs": [
        {
          "internalType": "uint256",
          "name": "",
          "type": "uint256"
        }
      ],
      "stateMutability": "view",
      "type": "function"
    },
    {
      "inputs": [
        {
          "internalType": "contract IERC20",
          "name": "",
          "type": "address"
        },
        {
          "internalType": "contract IERC20",
          "name": "",
          "type": "address"
        },
        {
          "internalType": "uint256",
          "name": "",
          "type": "uint256"
        }
      ],
      "name": "routes",
      "outputs": [
        {
          "internalType": "contract IERC20",
          "name": "from",
          "type": "address"
        },
        {
          "internalType": "contract IERC20",
          "name": "to",
          "type": "address"
        },
        {
          "internalType": "contract IUniswapV2Pair",
          "name": "pair",
          "type": "address"
        },
        {
          "internalType": "uint32",
          "name": "amountsOutNominator",
          "type": "uint32"
        },
        {
          "internalType": "uint32",
          "name": "amountsOutDenominator",
          "type": "uint32"
        }
      ],
      "stateMutability": "view",
      "type": "function"
    },
    {
      "inputs": [
        {
          "internalType": "address",
          "name": "factory",
          "type": "address"
        },
        {
          "internalType": "uint32",
          "name": "amountsOutNominator",
          "type": "uint32"
        },
        {
          "internalType": "uint32",
          "name": "amountsOutDenominator",
          "type": "uint32"
        }
      ],
      "name": "setFactory",
      "outputs": [],
      "stateMutability": "nonpayable",
      "type": "function"
    },
    {
      "inputs": [
        {
          "internalType": "address",
          "name": "newPendingOwner",
          "type": "address"
        }
      ],
      "name": "setPendingOwner",
      "outputs": [],
      "stateMutability": "nonpayable",
      "type": "function"
    },
    {
      "inputs": [
        {
          "internalType": "contract IERC20",
          "name": "from",
          "type": "address"
        },
        {
          "internalType": "contract IERC20",
          "name": "to",
          "type": "address"
        },
        {
          "internalType": "address[]",
          "name": "inputRoute",
          "type": "address[]"
        }
      ],
      "name": "setRoute",
      "outputs": [],
      "stateMutability": "nonpayable",
      "type": "function"
    },
    {
      "inputs": [],
      "name": "transferOwnership",
      "outputs": [],
      "stateMutability": "nonpayable",
      "type": "function"
    }
  ],
  "transactionHash": "0x9c25d280d968ab0ea402d78f7677a882073693c20b1d14ef52fc3273ac51d1a3",
  "args": [],
  "solcInputHash": "c271f0afa7a646b4a66756ecac278881",
  "bytecode": "0x608060405234801561001057600080fd5b5061001a33610024565b600160025561007e565b600180546001600160a01b0319908116909155600080546001600160a01b03848116938216841783556040519116929183917f8be0079c531659141344cd1fd0a4f28419497f9722a3daafe3b4186f6b6457e09190a35050565b6120368061008d6000396000f3fe608060405234801561001057600080fd5b50600436106100ea5760003560e01c806363c6edfa1161008c5780638da5cb5b116100665780638da5cb5b14610220578063c42069ec14610231578063e30c397814610244578063fab526891461025757600080fd5b806363c6edfa146101d7578063715018a614610210578063880ad0af1461021857600080fd5b80634b37c73f116100c85780634b37c73f1461013257806355a204f9146101455780635cadd6d114610170578063600c557d1461018357600080fd5b80630b9214f9146100ef5780632634092614610104578063470f498514610117575b600080fd5b6101026100fd366004611cb3565b6102c5565b005b610102610112366004611cf3565b6102eb565b61011f6103e7565b6040519081526020015b60405180910390f35b610102610140366004611bf5565b6103f8565b610158610153366004611e63565b6104be565b6040516001600160a01b039091168152602001610129565b61010261017e366004611c2f565b6104d1565b610196610191366004611de6565b6106cc565b604080516001600160a01b0396871681529486166020860152929094169183019190915263ffffffff9081166060830152909116608082015260a001610129565b61011f6101e5366004611c7a565b6001600160a01b03918216600090815260066020908152604080832093909416825291909152205490565b610102610741565b610102610777565b6000546001600160a01b0316610158565b61010261023f366004611bf5565b610866565b600154610158906001600160a01b031681565b610299610265366004611bf5565b6005602052600090815260409020546001600160a01b0381169063ffffffff600160a01b8204811691600160c01b90041683565b604080516001600160a01b03909416845263ffffffff9283166020850152911690820152606001610129565b60006102d96102d26108e2565b85856108f7565b90506102e58183610ad0565b50505050565b6000546001600160a01b0316331461031e5760405162461bcd60e51b815260040161031590611e95565b60405180910390fd5b6001600160a01b038084166000908152600660209081526040808320938616835292905220541515610351848484610ed5565b801515836001600160a01b0316856001600160a01b03167f4543854d4a9097d1b702bd5734d0a5a2834070931096c2a7a0d326bb34f71e5660405160405180910390a461039e8484611545565b801515846001600160a01b0316846001600160a01b03167f4543854d4a9097d1b702bd5734d0a5a2834070931096c2a7a0d326bb34f71e5660405160405180910390a450505050565b60006103f360036118b3565b905090565b6000546001600160a01b031633146104225760405162461bcd60e51b815260040161031590611e95565b61042d6003826118bd565b6104635760405162461bcd60e51b81526020600482015260076024820152662165786973747360c81b6044820152606401610315565b61046e6003826118e2565b506001600160a01b03811660008181526005602052604080822080546001600160e01b0319169055517fafa2737b2090fa39c66b7348625f0c03726240f724defbc6216d679506f944419190a250565b60006104cb6003836118f7565b92915050565b6000546001600160a01b031633146104fb5760405162461bcd60e51b815260040161031590611e95565b8163ffffffff168163ffffffff1610156105465760405162461bcd60e51b815260206004820152600c60248201526b216e6f6d203e2064656e6f6d60a01b6044820152606401610315565b63ffffffff82166105815760405162461bcd60e51b8152602060048201526005602482015264217a65726f60d81b6044820152606401610315565b63ffffffff821661059457610594611f55565b6001600160a01b0383166105da5760405162461bcd60e51b815260206004820152600d60248201526c217a65726f20666163746f727960981b6044820152606401610315565b60006105e76003856118bd565b604080516060810182526001600160a01b0380881680835263ffffffff8089166020808601918252898316868801908152600094855260059091529590922093518454925195518216600160c01b0263ffffffff60c01b19968316600160a01b026001600160c01b03199094169190941617919091179390931617905590915061067690600390869061190316565b506040805163ffffffff808616825284166020820152821515916001600160a01b038716917f371529b40bbd6a0fdc00ffa2f65512b7ba6152f0c2111608704538c5491c9147910160405180910390a350505050565b600660205282600052604060002060205281600052604060002081815481106106f457600080fd5b60009182526020909120600390910201805460018201546002909201546001600160a01b03918216955091811693508116915063ffffffff600160a01b8204811691600160c01b90041685565b6000546001600160a01b0316331461076b5760405162461bcd60e51b815260040161031590611e95565b6107756000611918565b565b6001546001600160a01b0316336001600160a01b0316146107ea5760405162461bcd60e51b815260206004820152602760248201527f4f776e61626c653a2063616c6c6572206973206e6f74207468652070656e64696044820152663733a7bbb732b960c91b6064820152608401610315565b6001546001600160a01b03166108515760405162461bcd60e51b815260206004820152602660248201527f4f776e61626c653a206e6577206f776e657220697320746865207a65726f206160448201526564647265737360d01b6064820152608401610315565b600154610775906001600160a01b0316611918565b6000546001600160a01b031633146108905760405162461bcd60e51b815260040161031590611e95565b600180546001600160a01b038381166001600160a01b0319831681179093556040519116919082907f1e1c2f9f5b763f63f56cae5a9a406c263521f324917ae0fe29e5cf9955e81ec890600090a35050565b6108ea611b3f565b6108f2611b3f565b919050565b6108ff611b3f565b6001600160a01b038084166000908152600660209081526040808320938616835292815282822080548451818402810184019095528085529293929091849084015b828210156109c05760008481526020908190206040805160a0810182526003860290920180546001600160a01b0390811684526001808301548216858701526002909201549081169284019290925263ffffffff600160a01b830481166060850152600160c01b90920490911660808301529083529092019101610941565b505050509050805160001415610a3e5760405162461bcd60e51b815260206004820152603a60248201527f526f757465206c656e677468207a65726f2c20544f444f3a2067656e6572617460448201527f65206e657720726f757465206175746f6d61746963616c6c792e0000000000006064820152608401610315565b60005b8151811015610ac6576000828281518110610a5e57610a5e611fad565b6020026020010151905060006001600160a01b031681604001516001600160a01b03161415610aa157610a9a87826000015183602001516108f7565b9650610ab3565b610aaf878260400151610ad0565b8096505b5080610abe81611f18565b915050610a41565b5093949350505050565b60208201516001600160a01b0316610b3f57604051631d6fead360e11b81526001600160a01b03821660048201523390633adfd5a690602401600060405180830381600087803b158015610b2357600080fd5b505af1158015610b37573d6000803e3d6000fd5b505050505050565b81602001516001600160a01b031682600001516001600160a01b03161015610d2b5760008083604001516001600160a01b0316630902f1ac6040518163ffffffff1660e01b815260040160606040518083038186803b158015610ba157600080fd5b505afa158015610bb5573d6000803e3d6000fd5b505050506040513d601f19601f82011682018060405250810190610bd99190611e27565b50855160408088015190516370a0823160e01b81526001600160a01b0391821660048201526001600160701b03948516965092909316935060009285929116906370a082319060240160206040518083038186803b158015610c3a57600080fd5b505afa158015610c4e573d6000803e3d6000fd5b505050506040513d601f19601f82011682018060405250810190610c729190611e7c565b610c7c9190611f01565b90506000610ca1828585896060015163ffffffff168a6080015163ffffffff16611972565b604080880151905163022c0d9f60e01b8152600060048201819052602482018490526001600160a01b03898116604484015260806064840152608483019190915292935091169063022c0d9f9060a401600060405180830381600087803b158015610d0b57600080fd5b505af1158015610d1f573d6000803e3d6000fd5b50505050505050505050565b60008083604001516001600160a01b0316630902f1ac6040518163ffffffff1660e01b815260040160606040518083038186803b158015610d6b57600080fd5b505afa158015610d7f573d6000803e3d6000fd5b505050506040513d601f19601f82011682018060405250810190610da39190611e27565b50855160408088015190516370a0823160e01b81526001600160a01b0391821660048201526001600160701b03948516965092909316935060009284929116906370a082319060240160206040518083038186803b158015610e0457600080fd5b505afa158015610e18573d6000803e3d6000fd5b505050506040513d601f19601f82011682018060405250810190610e3c9190611e7c565b610e469190611f01565b90506000610e6b828486896060015163ffffffff168a6080015163ffffffff16611972565b604080880151905163022c0d9f60e01b8152600481018390526000602482018190526001600160a01b03898116604484015260806064840152608483019190915292935091169063022c0d9f9060a401600060405180830381600087803b158015610d0b57600080fd5b600381511015610f1a5760405162461bcd60e51b815260206004820152601060248201526f085c9bdd5d19481d1bdbc81cda1bdc9d60821b6044820152606401610315565b60028151610f289190611f33565b600114610f705760405162461bcd60e51b8152602060048201526016602482015275042e4deeae8ca40d0c2e640caeccadc40d8cadccee8d60531b6044820152606401610315565b826001600160a01b031681600081518110610f8d57610f8d611fad565b60200260200101516001600160a01b031614610feb5760405162461bcd60e51b815260206004820152601b60248201527f21746f6b656e30206e6f7420726f75746520626567696e6e696e6700000000006044820152606401610315565b816001600160a01b031681600183516110049190611f01565b8151811061101457611014611fad565b60200260200101516001600160a01b0316146110725760405162461bcd60e51b815260206004820152601860248201527f21746f6b656e31206e6f7420726f75746520656e64696e6700000000000000006044820152606401610315565b6001600160a01b03808416600090815260066020908152604080832093861683529290529081206110a291611b6d565b6000816000815181106110b7576110b7611fad565b60209081029190910101516040516370a0823160e01b81523060048201529091506001600160a01b038216906370a082319060240160206040518083038186803b15801561110457600080fd5b505afa158015611118573d6000803e3d6000fd5b505050506040513d601f19601f8201168201806040525081019061113c9190611e7c565b5060015b825181101561153e57600083828151811061115d5761115d611fad565b602002602001015190506000848360016111779190611eca565b8151811061118757611187611fad565b6020026020010151905060006001600160a01b0316826001600160a01b03161415611301576001600160a01b0380851660009081526006602090815260408083209385168352929052205461121e5760405162461bcd60e51b815260206004820152601760248201527f737562726f75746520646f6573206e6f742065786973740000000000000000006044820152606401610315565b6001600160a01b0387811660009081526006602090815260408083208a851684528252808320815160a08101835289861681528686168185019081529281018581526060820186815260808301878152845460018082018755958952969097209251600390960290920180546001600160a01b03199081169689169690961781559351928401805490951692871692909217909355516002909101805492519351919094166001600160c01b031990921691909117600160a01b63ffffffff938416021763ffffffff60c01b1916600160c01b9290911691909102179055611528565b61130c6003836118bd565b6113585760405162461bcd60e51b815260206004820152601760248201527f21666163746f727920646f6573206e6f742065786973740000000000000000006044820152606401610315565b60405163e6a4390560e01b81526001600160a01b03858116600483015282811660248301526000919084169063e6a439059060440160206040518083038186803b1580156113a557600080fd5b505afa1580156113b9573d6000803e3d6000fd5b505050506040513d601f19601f820116820180604052508101906113dd9190611c12565b90506001600160a01b03811661142b5760405162461bcd60e51b81526020600482015260136024820152721c185a5c88191bd95cc81b9bdd08195e1a5cdd606a1b6044820152606401610315565b6001600160a01b0380891660009081526006602090815260408083208b851684528252808320815160a0810183528a86168152878616818501908152968616818401908152898716865260058086529386205463ffffffff600160a01b808304821660608601908152968852600160c01b92839004821660808601908152865460018181018955978b5298909920945160039098029094018054978a166001600160a01b03199889161781559951948a018054958a169590971694909417909555516002909701805493519551831690940263ffffffff60c01b1995909216026001600160c01b0319909216959094169490941793909317161790555b92506115379050600282611eca565b9050611140565b5050505050565b6001600160a01b038082166000908152600660209081526040808320938616835292905290812061157591611b6d565b6001600160a01b038083166000908152600660209081526040808320938516835292905290812054906115a6611b3f565b60005b83811015610b3757806115bd600186611f01565b6115c79190611f01565b6001600160a01b038088166000908152600660209081526040808320938a168352929052208054919450908490811061160257611602611fad565b90600052602060002090600302016040518060a00160405290816000820160009054906101000a90046001600160a01b03166001600160a01b03166001600160a01b031681526020016001820160009054906101000a90046001600160a01b03166001600160a01b03166001600160a01b031681526020016002820160009054906101000a90046001600160a01b03166001600160a01b03166001600160a01b031681526020016002820160149054906101000a900463ffffffff1663ffffffff1663ffffffff1681526020016002820160189054906101000a900463ffffffff1663ffffffff1663ffffffff1681525050915060066000866001600160a01b03166001600160a01b031681526020019081526020016000206000876001600160a01b03166001600160a01b031681526020019081526020016000206040518060a0016040528084602001516001600160a01b0316815260200184600001516001600160a01b0316815260200184604001516001600160a01b03168152602001846060015163ffffffff168152602001846080015163ffffffff16815250908060018154018082558091505060019003906000526020600020906003020160009091909190915060008201518160000160006101000a8154816001600160a01b0302191690836001600160a01b0316021790555060208201518160010160006101000a8154816001600160a01b0302191690836001600160a01b0316021790555060408201518160020160006101000a8154816001600160a01b0302191690836001600160a01b0316021790555060608201518160020160146101000a81548163ffffffff021916908363ffffffff16021790555060808201518160020160186101000a81548163ffffffff021916908363ffffffff160217905550505080806118ab90611f18565b9150506115a9565b60006104cb825490565b6001600160a01b038116600090815260018301602052604081205415155b9392505050565b60006118db836001600160a01b0384166119d3565b60006118db8383611ac6565b60006118db836001600160a01b038416611af0565b600180546001600160a01b0319908116909155600080546001600160a01b03848116938216841783556040519116929183917f8be0079c531659141344cd1fd0a4f28419497f9722a3daafe3b4186f6b6457e09190a35050565b60008061197f8488611ee2565b9050600061198d8683611ee2565b905060008261199c868a611ee2565b6119a69190611eca565b905080156119c3578082816119bd576119bd611f81565b046119c6565b60005b9998505050505050505050565b60008181526001830160205260408120548015611abc5760006119f7600183611f01565b8554909150600090611a0b90600190611f01565b9050818114611a70576000866000018281548110611a2b57611a2b611fad565b9060005260206000200154905080876000018481548110611a4e57611a4e611fad565b6000918252602080832090910192909255918252600188019052604090208390555b8554869080611a8157611a81611f97565b6001900381819060005260206000200160009055905585600101600086815260200190815260200160002060009055600193505050506104cb565b60009150506104cb565b6000826000018281548110611add57611add611fad565b9060005260206000200154905092915050565b6000818152600183016020526040812054611b37575081546001818101845560008481526020808220909301849055845484825282860190935260409020919091556104cb565b5060006104cb565b6040805160a08101825260008082526020820181905291810182905260608101829052608081019190915290565b5080546000825560030290600052602060002090810190611b8e9190611b91565b50565b5b80821115611bcf5780546001600160a01b0319908116825560018201805490911690556002810180546001600160e01b0319169055600301611b92565b5090565b80356108f281611fd9565b80516001600160701b03811681146108f257600080fd5b600060208284031215611c0757600080fd5b81356118db81611fd9565b600060208284031215611c2457600080fd5b81516118db81611fd9565b600080600060608486031215611c4457600080fd5b8335611c4f81611fd9565b92506020840135611c5f81611fee565b91506040840135611c6f81611fee565b809150509250925092565b60008060408385031215611c8d57600080fd5b8235611c9881611fd9565b91506020830135611ca881611fd9565b809150509250929050565b600080600060608486031215611cc857600080fd5b8335611cd381611fd9565b92506020840135611ce381611fd9565b91506040840135611c6f81611fd9565b600080600060608486031215611d0857600080fd5b8335611d1381611fd9565b9250602084810135611d2481611fd9565b9250604085013567ffffffffffffffff80821115611d4157600080fd5b818701915087601f830112611d5557600080fd5b813581811115611d6757611d67611fc3565b8060051b604051601f19603f83011681018181108582111715611d8c57611d8c611fc3565b604052828152858101935084860182860187018c1015611dab57600080fd5b600095505b83861015611dd557611dc181611bd3565b855260019590950194938601938601611db0565b508096505050505050509250925092565b600080600060608486031215611dfb57600080fd5b8335611e0681611fd9565b92506020840135611e1681611fd9565b929592945050506040919091013590565b600080600060608486031215611e3c57600080fd5b611e4584611bde565b9250611e5360208501611bde565b91506040840151611c6f81611fee565b600060208284031215611e7557600080fd5b5035919050565b600060208284031215611e8e57600080fd5b5051919050565b6020808252818101527f4f776e61626c653a2063616c6c6572206973206e6f7420746865206f776e6572604082015260600190565b60008219821115611edd57611edd611f6b565b500190565b6000816000190483118215151615611efc57611efc611f6b565b500290565b600082821015611f1357611f13611f6b565b500390565b6000600019821415611f2c57611f2c611f6b565b5060010190565b600082611f5057634e487b7160e01b600052601260045260246000fd5b500690565b634e487b7160e01b600052600160045260246000fd5b634e487b7160e01b600052601160045260246000fd5b634e487b7160e01b600052601260045260246000fd5b634e487b7160e01b600052603160045260246000fd5b634e487b7160e01b600052603260045260246000fd5b634e487b7160e01b600052604160045260246000fd5b6001600160a01b0381168114611b8e57600080fd5b63ffffffff81168114611b8e57600080fdfea264697066735822122015955a480205cfd53f173eb071dfad9077c152a7a0832b67c4177dceff37282c64736f6c63430008060033",
  "devdoc": {
    "kind": "dev",
    "methods": {
      "owner()": {
        "details": "Returns the address of the current owner."
      },
      "renounceOwnership()": {
        "details": "Leaves the contract without owner. It will not be possible to call `onlyOwner` functions anymore. Can only be called by the current owner. NOTE: Renouncing ownership will leave the contract without an owner, thereby removing any functionality that is only available to the owner."
      },
      "setPendingOwner(address)": {
        "details": "Sets the pendingOwner, ownership is only transferred when they call transferOwnership. Can only be called by the current owner."
      },
      "transferOwnership()": {
        "details": "Transfers ownership of the contract to the pendingOwner. Can only be called by the pendingOwner."
      }
    },
    "version": 1
  },
  "userdoc": {
    "kind": "user",
    "methods": {},
    "version": 1
  },
  "storageLayout": {
    "storage": [
      {
        "astId": 3274,
        "contract": "contracts/ZapHandlerV1.sol:ZapHandlerV1",
        "label": "_owner",
        "offset": 0,
        "slot": "0",
        "type": "t_address"
      },
      {
        "astId": 3276,
        "contract": "contracts/ZapHandlerV1.sol:ZapHandlerV1",
        "label": "pendingOwner",
        "offset": 0,
        "slot": "1",
        "type": "t_address"
      },
      {
        "astId": 10,
        "contract": "contracts/ZapHandlerV1.sol:ZapHandlerV1",
        "label": "_status",
        "offset": 0,
        "slot": "2",
        "type": "t_uint256"
      },
      {
        "astId": 2415,
        "contract": "contracts/ZapHandlerV1.sol:ZapHandlerV1",
        "label": "factorySet",
        "offset": 0,
        "slot": "3",
        "type": "t_struct(AddressSet)1543_storage"
      },
      {
        "astId": 2420,
        "contract": "contracts/ZapHandlerV1.sol:ZapHandlerV1",
        "label": "factories",
        "offset": 0,
        "slot": "5",
        "type": "t_mapping(t_address,t_struct(Factory)2398_storage)"
      },
      {
        "astId": 2430,
        "contract": "contracts/ZapHandlerV1.sol:ZapHandlerV1",
        "label": "routes",
        "offset": 0,
        "slot": "6",
        "type": "t_mapping(t_contract(IERC20)663,t_mapping(t_contract(IERC20)663,t_array(t_struct(RouteStep)2412_storage)dyn_storage))"
      }
    ],
    "types": {
      "t_address": {
        "encoding": "inplace",
        "label": "address",
        "numberOfBytes": "20"
      },
      "t_array(t_bytes32)dyn_storage": {
        "base": "t_bytes32",
        "encoding": "dynamic_array",
        "label": "bytes32[]",
        "numberOfBytes": "32"
      },
      "t_array(t_struct(RouteStep)2412_storage)dyn_storage": {
        "base": "t_struct(RouteStep)2412_storage",
        "encoding": "dynamic_array",
        "label": "struct ZapHandlerV1.RouteStep[]",
        "numberOfBytes": "32"
      },
      "t_bytes32": {
        "encoding": "inplace",
        "label": "bytes32",
        "numberOfBytes": "32"
      },
      "t_contract(IERC20)663": {
        "encoding": "inplace",
        "label": "contract IERC20",
        "numberOfBytes": "20"
      },
      "t_contract(IUniswapV2Pair)2135": {
        "encoding": "inplace",
        "label": "contract IUniswapV2Pair",
        "numberOfBytes": "20"
      },
      "t_mapping(t_address,t_struct(Factory)2398_storage)": {
        "encoding": "mapping",
        "key": "t_address",
        "label": "mapping(address => struct ZapHandlerV1.Factory)",
        "numberOfBytes": "32",
        "value": "t_struct(Factory)2398_storage"
      },
      "t_mapping(t_bytes32,t_uint256)": {
        "encoding": "mapping",
        "key": "t_bytes32",
        "label": "mapping(bytes32 => uint256)",
        "numberOfBytes": "32",
        "value": "t_uint256"
      },
      "t_mapping(t_contract(IERC20)663,t_array(t_struct(RouteStep)2412_storage)dyn_storage)": {
        "encoding": "mapping",
        "key": "t_contract(IERC20)663",
        "label": "mapping(contract IERC20 => struct ZapHandlerV1.RouteStep[])",
        "numberOfBytes": "32",
        "value": "t_array(t_struct(RouteStep)2412_storage)dyn_storage"
      },
      "t_mapping(t_contract(IERC20)663,t_mapping(t_contract(IERC20)663,t_array(t_struct(RouteStep)2412_storage)dyn_storage))": {
        "encoding": "mapping",
        "key": "t_contract(IERC20)663",
        "label": "mapping(contract IERC20 => mapping(contract IERC20 => struct ZapHandlerV1.RouteStep[]))",
        "numberOfBytes": "32",
        "value": "t_mapping(t_contract(IERC20)663,t_array(t_struct(RouteStep)2412_storage)dyn_storage)"
      },
      "t_struct(AddressSet)1543_storage": {
        "encoding": "inplace",
        "label": "struct EnumerableSet.AddressSet",
        "members": [
          {
            "astId": 1542,
            "contract": "contracts/ZapHandlerV1.sol:ZapHandlerV1",
            "label": "_inner",
            "offset": 0,
            "slot": "0",
            "type": "t_struct(Set)1242_storage"
          }
        ],
        "numberOfBytes": "64"
      },
      "t_struct(Factory)2398_storage": {
        "encoding": "inplace",
        "label": "struct ZapHandlerV1.Factory",
        "members": [
          {
            "astId": 2393,
            "contract": "contracts/ZapHandlerV1.sol:ZapHandlerV1",
            "label": "factory",
            "offset": 0,
            "slot": "0",
            "type": "t_address"
          },
          {
            "astId": 2395,
            "contract": "contracts/ZapHandlerV1.sol:ZapHandlerV1",
            "label": "amountsOutNominator",
            "offset": 20,
            "slot": "0",
            "type": "t_uint32"
          },
          {
            "astId": 2397,
            "contract": "contracts/ZapHandlerV1.sol:ZapHandlerV1",
            "label": "amountsOutDenominator",
            "offset": 24,
            "slot": "0",
            "type": "t_uint32"
          }
        ],
        "numberOfBytes": "32"
      },
      "t_struct(RouteStep)2412_storage": {
        "encoding": "inplace",
        "label": "struct ZapHandlerV1.RouteStep",
        "members": [
          {
            "astId": 2401,
            "contract": "contracts/ZapHandlerV1.sol:ZapHandlerV1",
            "label": "from",
            "offset": 0,
            "slot": "0",
            "type": "t_contract(IERC20)663"
          },
          {
            "astId": 2404,
            "contract": "contracts/ZapHandlerV1.sol:ZapHandlerV1",
            "label": "to",
            "offset": 0,
            "slot": "1",
            "type": "t_contract(IERC20)663"
          },
          {
            "astId": 2407,
            "contract": "contracts/ZapHandlerV1.sol:ZapHandlerV1",
            "label": "pair",
            "offset": 0,
            "slot": "2",
            "type": "t_contract(IUniswapV2Pair)2135"
          },
          {
            "astId": 2409,
            "contract": "contracts/ZapHandlerV1.sol:ZapHandlerV1",
            "label": "amountsOutNominator",
            "offset": 20,
            "slot": "2",
            "type": "t_uint32"
          },
          {
            "astId": 2411,
            "contract": "contracts/ZapHandlerV1.sol:ZapHandlerV1",
            "label": "amountsOutDenominator",
            "offset": 24,
            "slot": "2",
            "type": "t_uint32"
          }
        ],
        "numberOfBytes": "96"
      },
      "t_struct(Set)1242_storage": {
        "encoding": "inplace",
        "label": "struct EnumerableSet.Set",
        "members": [
          {
            "astId": 1237,
            "contract": "contracts/ZapHandlerV1.sol:ZapHandlerV1",
            "label": "_values",
            "offset": 0,
            "slot": "0",
            "type": "t_array(t_bytes32)dyn_storage"
          },
          {
            "astId": 1241,
            "contract": "contracts/ZapHandlerV1.sol:ZapHandlerV1",
            "label": "_indexes",
            "offset": 0,
            "slot": "1",
            "type": "t_mapping(t_bytes32,t_uint256)"
          }
        ],
        "numberOfBytes": "64"
      },
      "t_uint256": {
        "encoding": "inplace",
        "label": "uint256",
        "numberOfBytes": "32"
      },
      "t_uint32": {
        "encoding": "inplace",
        "label": "uint32",
        "numberOfBytes": "4"
      }
    }
  }
}