{
  "address": "0xf2B89a0Eae2849243985252B88E88bC33e5f5B9f",
  "abi": [
    {
      "inputs": [
        {
          "internalType": "contract ZapHandlerV1",
          "name": "_zapHandler",
          "type": "address"
        },
        {
          "internalType": "address",
          "name": "_owner",
          "type": "address"
        }
      ],
      "stateMutability": "nonpayable",
      "type": "constructor"
    },
    {
      "anonymous": false,
      "inputs": [
        {
          "indexed": true,
          "internalType": "bytes32",
          "name": "role",
          "type": "bytes32"
        },
        {
          "indexed": true,
          "internalType": "bytes32",
          "name": "previousAdminRole",
          "type": "bytes32"
        },
        {
          "indexed": true,
          "internalType": "bytes32",
          "name": "newAdminRole",
          "type": "bytes32"
        }
      ],
      "name": "RoleAdminChanged",
      "type": "event"
    },
    {
      "anonymous": false,
      "inputs": [
        {
          "indexed": true,
          "internalType": "bytes32",
          "name": "role",
          "type": "bytes32"
        },
        {
          "indexed": true,
          "internalType": "address",
          "name": "account",
          "type": "address"
        },
        {
          "indexed": true,
          "internalType": "address",
          "name": "sender",
          "type": "address"
        }
      ],
      "name": "RoleGranted",
      "type": "event"
    },
    {
      "anonymous": false,
      "inputs": [
        {
          "indexed": true,
          "internalType": "bytes32",
          "name": "role",
          "type": "bytes32"
        },
        {
          "indexed": true,
          "internalType": "address",
          "name": "account",
          "type": "address"
        },
        {
          "indexed": true,
          "internalType": "address",
          "name": "sender",
          "type": "address"
        }
      ],
      "name": "RoleRevoked",
      "type": "event"
    },
    {
      "inputs": [],
      "name": "DEFAULT_ADMIN_ROLE",
      "outputs": [
        {
          "internalType": "bytes32",
          "name": "",
          "type": "bytes32"
        }
      ],
      "stateMutability": "view",
      "type": "function"
    },
    {
      "inputs": [],
      "name": "SET_FACTORY_ROLE",
      "outputs": [
        {
          "internalType": "bytes32",
          "name": "",
          "type": "bytes32"
        }
      ],
      "stateMutability": "view",
      "type": "function"
    },
    {
      "inputs": [],
      "name": "SET_ROUTE_ROLE",
      "outputs": [
        {
          "internalType": "bytes32",
          "name": "",
          "type": "bytes32"
        }
      ],
      "stateMutability": "view",
      "type": "function"
    },
    {
      "inputs": [
        {
          "internalType": "address",
          "name": "target",
          "type": "address"
        },
        {
          "internalType": "uint256",
          "name": "value",
          "type": "uint256"
        },
        {
          "internalType": "bytes",
          "name": "data",
          "type": "bytes"
        }
      ],
      "name": "executeTransaction",
      "outputs": [
        {
          "internalType": "bytes",
          "name": "",
          "type": "bytes"
        }
      ],
      "stateMutability": "payable",
      "type": "function"
    },
    {
      "inputs": [
        {
          "internalType": "bytes32",
          "name": "role",
          "type": "bytes32"
        }
      ],
      "name": "getRoleAdmin",
      "outputs": [
        {
          "internalType": "bytes32",
          "name": "",
          "type": "bytes32"
        }
      ],
      "stateMutability": "view",
      "type": "function"
    },
    {
      "inputs": [
        {
          "internalType": "bytes32",
          "name": "role",
          "type": "bytes32"
        },
        {
          "internalType": "uint256",
          "name": "index",
          "type": "uint256"
        }
      ],
      "name": "getRoleMember",
      "outputs": [
        {
          "internalType": "address",
          "name": "",
          "type": "address"
        }
      ],
      "stateMutability": "view",
      "type": "function"
    },
    {
      "inputs": [
        {
          "internalType": "bytes32",
          "name": "role",
          "type": "bytes32"
        }
      ],
      "name": "getRoleMemberCount",
      "outputs": [
        {
          "internalType": "uint256",
          "name": "",
          "type": "uint256"
        }
      ],
      "stateMutability": "view",
      "type": "function"
    },
    {
      "inputs": [
        {
          "internalType": "address",
          "name": "account",
          "type": "address"
        }
      ],
      "name": "grantAllRoles",
      "outputs": [],
      "stateMutability": "nonpayable",
      "type": "function"
    },
    {
      "inputs": [
        {
          "internalType": "bytes32",
          "name": "role",
          "type": "bytes32"
        },
        {
          "internalType": "address",
          "name": "account",
          "type": "address"
        }
      ],
      "name": "grantRole",
      "outputs": [],
      "stateMutability": "nonpayable",
      "type": "function"
    },
    {
      "inputs": [
        {
          "internalType": "bytes32",
          "name": "role",
          "type": "bytes32"
        },
        {
          "internalType": "address",
          "name": "account",
          "type": "address"
        }
      ],
      "name": "hasRole",
      "outputs": [
        {
          "internalType": "bool",
          "name": "",
          "type": "bool"
        }
      ],
      "stateMutability": "view",
      "type": "function"
    },
    {
      "inputs": [
        {
          "internalType": "address",
          "name": "factory",
          "type": "address"
        }
      ],
      "name": "removeFactory",
      "outputs": [],
      "stateMutability": "nonpayable",
      "type": "function"
    },
    {
      "inputs": [
        {
          "internalType": "bytes32",
          "name": "role",
          "type": "bytes32"
        },
        {
          "internalType": "address",
          "name": "account",
          "type": "address"
        }
      ],
      "name": "renounceRole",
      "outputs": [],
      "stateMutability": "nonpayable",
      "type": "function"
    },
    {
      "inputs": [
        {
          "internalType": "bytes32",
          "name": "role",
          "type": "bytes32"
        },
        {
          "internalType": "address",
          "name": "account",
          "type": "address"
        }
      ],
      "name": "revokeRole",
      "outputs": [],
      "stateMutability": "nonpayable",
      "type": "function"
    },
    {
      "inputs": [
        {
          "internalType": "address",
          "name": "factory",
          "type": "address"
        },
        {
          "internalType": "uint32",
          "name": "amountsOutNominator",
          "type": "uint32"
        },
        {
          "internalType": "uint32",
          "name": "amountsOutDenominator",
          "type": "uint32"
        }
      ],
      "name": "setFactory",
      "outputs": [],
      "stateMutability": "nonpayable",
      "type": "function"
    },
    {
      "inputs": [
        {
          "internalType": "contract IERC20",
          "name": "_mainToken",
          "type": "address"
        }
      ],
      "name": "setMainToken",
      "outputs": [],
      "stateMutability": "nonpayable",
      "type": "function"
    },
    {
      "inputs": [
        {
          "internalType": "address",
          "name": "newPendingOwner",
          "type": "address"
        }
      ],
      "name": "setPendingOwner",
      "outputs": [],
      "stateMutability": "nonpayable",
      "type": "function"
    },
    {
      "inputs": [
        {
          "internalType": "contract IERC20",
          "name": "from",
          "type": "address"
        },
        {
          "internalType": "contract IERC20",
          "name": "to",
          "type": "address"
        },
        {
          "internalType": "address[]",
          "name": "inputRoute",
          "type": "address[]"
        }
      ],
      "name": "setRoute",
      "outputs": [],
      "stateMutability": "nonpayable",
      "type": "function"
    },
    {
      "inputs": [
        {
          "internalType": "contract ZapHandlerV1",
          "name": "_zapHandler",
          "type": "address"
        }
      ],
      "name": "setZapHandler",
      "outputs": [],
      "stateMutability": "nonpayable",
      "type": "function"
    },
    {
      "inputs": [
        {
          "internalType": "bytes4",
          "name": "interfaceId",
          "type": "bytes4"
        }
      ],
      "name": "supportsInterface",
      "outputs": [
        {
          "internalType": "bool",
          "name": "",
          "type": "bool"
        }
      ],
      "stateMutability": "view",
      "type": "function"
    },
    {
      "inputs": [],
      "name": "transferOwnership",
      "outputs": [],
      "stateMutability": "nonpayable",
      "type": "function"
    },
    {
      "inputs": [],
      "name": "zapHandler",
      "outputs": [
        {
          "internalType": "contract ZapHandlerV1",
          "name": "",
          "type": "address"
        }
      ],
      "stateMutability": "view",
      "type": "function"
    }
  ],
  "transactionHash": "0x373eea2860895378e84c73dde91e1a8161374ba81e3de35e58a7fe01ff44512e",
  "args": [
    "0xf33A4e9Ca8E6687E61478F7357265E884E4f84e4",
    "0xa66745F0092F7460F107E4c66C224553bF4Cd727"
  ],
  "solcInputHash": "0ff1abe7d6b6c7bddcd653d72419b3c2",
  "bytecode": "0x60806040523480156200001157600080fd5b5060405162001c0338038062001c0383398101604081905262000034916200023c565b600280546001600160a01b0319166001600160a01b0384161790556200005c6000826200006f565b6200006781620000b2565b505062000291565b6200008682826200011a60201b620009e71760201c565b6000828152600160209081526040909120620000ad918390620009f16200012a821b17901c565b505050565b620000bf6000826200006f565b620000eb7fad6046625976df65390784e1468d8079825cbbf88f7c6b2da3f12871b375c79f826200006f565b620001177f52f6ee56864199b342602f2ca3c7661b1e8b04c24f98dc01f90f51f6dde7fec0826200006f565b50565b6200012682826200014a565b5050565b600062000141836001600160a01b038416620001ea565b90505b92915050565b6000828152602081815260408083206001600160a01b038516845290915290205460ff1662000126576000828152602081815260408083206001600160a01b03851684529091529020805460ff19166001179055620001a63390565b6001600160a01b0316816001600160a01b0316837f2f8788117e7eff1d82e926ec794901d17c78024a50270940304540a733656f0d60405160405180910390a45050565b6000818152600183016020526040812054620002335750815460018181018455600084815260208082209093018490558454848252828601909352604090209190915562000144565b50600062000144565b600080604083850312156200025057600080fd5b82516200025d816200027b565b602084015190925062000270816200027b565b809150509250929050565b6001600160a01b03811681146200011757600080fd5b61196280620002a16000396000f3fe60806040526004361061016a5760003560e01c8063625077db116100cb578063a217fddf1161007f578063c89b88e311610059578063c89b88e314610445578063ca15c87314610479578063d547741f1461049957600080fd5b8063a217fddf146103e3578063c21d7e06146103f8578063c42069ec1461042557600080fd5b80639010d07c116100b05780639010d07c1461032d57806391d1485414610372578063a0573536146103c357600080fd5b8063625077db146102f8578063880ad0af1461031857600080fd5b80632f2ff15d116101225780633f579f42116101075780633f579f42146102985780634b37c73f146102b85780635cadd6d1146102d857600080fd5b80632f2ff15d1461025857806336568abe1461027857600080fd5b8063248a9ca311610153578063248a9ca3146101e6578063263409261461021657806327ce464e1461023857600080fd5b806301ffc9a71461016f5780630f56988d146101a4575b600080fd5b34801561017b57600080fd5b5061018f61018a3660046114a5565b6104b9565b60405190151581526020015b60405180910390f35b3480156101b057600080fd5b506101d87f52f6ee56864199b342602f2ca3c7661b1e8b04c24f98dc01f90f51f6dde7fec081565b60405190815260200161019b565b3480156101f257600080fd5b506101d861020136600461143a565b60009081526020819052604090206001015490565b34801561022257600080fd5b506102366102313660046114e7565b610515565b005b34801561024457600080fd5b50610236610253366004611309565b6105d2565b34801561026457600080fd5b50610236610273366004611453565b610668565b34801561028457600080fd5b50610236610293366004611453565b61068f565b6102ab6102a6366004611326565b6106b1565b60405161019b91906116ae565b3480156102c457600080fd5b506102366102d3366004611309565b6107a5565b3480156102e457600080fd5b506102366102f33660046113f5565b610828565b34801561030457600080fd5b50610236610313366004611309565b6108bf565b34801561032457600080fd5b50610236610913565b34801561033957600080fd5b5061034d610348366004611483565b61092a565b60405173ffffffffffffffffffffffffffffffffffffffff909116815260200161019b565b34801561037e57600080fd5b5061018f61038d366004611453565b60009182526020828152604080842073ffffffffffffffffffffffffffffffffffffffff93909316845291905290205460ff1690565b3480156103cf57600080fd5b506102366103de366004611309565b610949565b3480156103ef57600080fd5b506101d8600081565b34801561040457600080fd5b5060025461034d9073ffffffffffffffffffffffffffffffffffffffff1681565b34801561043157600080fd5b50610236610440366004611309565b610962565b34801561045157600080fd5b506101d87fad6046625976df65390784e1468d8079825cbbf88f7c6b2da3f12871b375c79f81565b34801561048557600080fd5b506101d861049436600461143a565b6109c6565b3480156104a557600080fd5b506102366104b4366004611453565b6109dd565b60007fffffffff0000000000000000000000000000000000000000000000000000000082167f5a05180f00000000000000000000000000000000000000000000000000000000148061050f575061050f82610a13565b92915050565b7f52f6ee56864199b342602f2ca3c7661b1e8b04c24f98dc01f90f51f6dde7fec06105408133610aaa565b6002546040517f2634092600000000000000000000000000000000000000000000000000000000815273ffffffffffffffffffffffffffffffffffffffff9091169063263409269061059a908790879087906004016116c1565b600060405180830381600087803b1580156105b457600080fd5b505af11580156105c8573d6000803e3d6000fd5b5050505050505050565b60006105de8133610aaa565b6002546040517f27ce464e00000000000000000000000000000000000000000000000000000000815273ffffffffffffffffffffffffffffffffffffffff8481166004830152909116906327ce464e906024015b600060405180830381600087803b15801561064c57600080fd5b505af1158015610660573d6000803e3d6000fd5b505050505050565b6106728282610b7a565b600082815260016020526040902061068a90826109f1565b505050565b6106998282610ba0565b600082815260016020526040902061068a9082610c4f565b606060006106bf8133610aaa565b6000808673ffffffffffffffffffffffffffffffffffffffff1686866040516106e89190611611565b60006040518083038185875af1925050503d8060008114610725576040519150601f19603f3d011682016040523d82523d6000602084013e61072a565b606091505b50915091508161079b576040517f08c379a000000000000000000000000000000000000000000000000000000000815260206004820152600960248201527f217265766572746564000000000000000000000000000000000000000000000060448201526064015b60405180910390fd5b9695505050505050565b7fad6046625976df65390784e1468d8079825cbbf88f7c6b2da3f12871b375c79f6107d08133610aaa565b6002546040517f4b37c73f00000000000000000000000000000000000000000000000000000000815273ffffffffffffffffffffffffffffffffffffffff848116600483015290911690634b37c73f90602401610632565b7fad6046625976df65390784e1468d8079825cbbf88f7c6b2da3f12871b375c79f6108538133610aaa565b6002546040517f5cadd6d100000000000000000000000000000000000000000000000000000000815273ffffffffffffffffffffffffffffffffffffffff868116600483015263ffffffff80871660248401528516604483015290911690635cadd6d19060640161059a565b60006108cb8133610aaa565b50600280547fffffffffffffffffffffffff00000000000000000000000000000000000000001673ffffffffffffffffffffffffffffffffffffffff92909216919091179055565b600061091f8133610aaa565b610927610c71565b50565b60008281526001602052604081206109429083610cf5565b9392505050565b60006109558133610aaa565b61095e82610d01565b5050565b600061096e8133610aaa565b6002546040517fc42069ec00000000000000000000000000000000000000000000000000000000815273ffffffffffffffffffffffffffffffffffffffff84811660048301529091169063c42069ec90602401610632565b600081815260016020526040812061050f90610d60565b6106998282610d6a565b61095e8282610d90565b60006109428373ffffffffffffffffffffffffffffffffffffffff8416610e80565b60007fffffffff0000000000000000000000000000000000000000000000000000000082167f7965db0b00000000000000000000000000000000000000000000000000000000148061050f57507f01ffc9a7000000000000000000000000000000000000000000000000000000007fffffffff0000000000000000000000000000000000000000000000000000000083161461050f565b60008281526020818152604080832073ffffffffffffffffffffffffffffffffffffffff8516845290915290205460ff1661095e57610b008173ffffffffffffffffffffffffffffffffffffffff166014610ecf565b610b0b836020610ecf565b604051602001610b1c92919061162d565b604080517fffffffffffffffffffffffffffffffffffffffffffffffffffffffffffffffe0818403018152908290527f08c379a0000000000000000000000000000000000000000000000000000000008252610792916004016116ae565b600082815260208190526040902060010154610b968133610aaa565b61068a8383610d90565b73ffffffffffffffffffffffffffffffffffffffff81163314610c45576040517f08c379a000000000000000000000000000000000000000000000000000000000815260206004820152602f60248201527f416363657373436f6e74726f6c3a2063616e206f6e6c792072656e6f756e636560448201527f20726f6c657320666f722073656c6600000000000000000000000000000000006064820152608401610792565b61095e8282611112565b60006109428373ffffffffffffffffffffffffffffffffffffffff84166111c9565b600260009054906101000a900473ffffffffffffffffffffffffffffffffffffffff1673ffffffffffffffffffffffffffffffffffffffff1663880ad0af6040518163ffffffff1660e01b8152600401600060405180830381600087803b158015610cdb57600080fd5b505af1158015610cef573d6000803e3d6000fd5b50505050565b600061094283836112bc565b610d0c6000826112e6565b610d367fad6046625976df65390784e1468d8079825cbbf88f7c6b2da3f12871b375c79f826112e6565b6109277f52f6ee56864199b342602f2ca3c7661b1e8b04c24f98dc01f90f51f6dde7fec0826112e6565b600061050f825490565b600082815260208190526040902060010154610d868133610aaa565b61068a8383611112565b60008281526020818152604080832073ffffffffffffffffffffffffffffffffffffffff8516845290915290205460ff1661095e5760008281526020818152604080832073ffffffffffffffffffffffffffffffffffffffff85168452909152902080547fffffffffffffffffffffffffffffffffffffffffffffffffffffffffffffff00166001179055610e223390565b73ffffffffffffffffffffffffffffffffffffffff168173ffffffffffffffffffffffffffffffffffffffff16837f2f8788117e7eff1d82e926ec794901d17c78024a50270940304540a733656f0d60405160405180910390a45050565b6000818152600183016020526040812054610ec75750815460018181018455600084815260208082209093018490558454848252828601909352604090209190915561050f565b50600061050f565b60606000610ede836002611799565b610ee9906002611781565b67ffffffffffffffff811115610f0157610f016118db565b6040519080825280601f01601f191660200182016040528015610f2b576020820181803683370190505b5090507f300000000000000000000000000000000000000000000000000000000000000081600081518110610f6257610f626118ac565b60200101907effffffffffffffffffffffffffffffffffffffffffffffffffffffffffffff1916908160001a9053507f780000000000000000000000000000000000000000000000000000000000000081600181518110610fc557610fc56118ac565b60200101907effffffffffffffffffffffffffffffffffffffffffffffffffffffffffffff1916908160001a9053506000611001846002611799565b61100c906001611781565b90505b60018111156110a9577f303132333435363738396162636465660000000000000000000000000000000085600f166010811061104d5761104d6118ac565b1a60f81b828281518110611063576110636118ac565b60200101907effffffffffffffffffffffffffffffffffffffffffffffffffffffffffffff1916908160001a90535060049490941c936110a281611819565b905061100f565b508315610942576040517f08c379a000000000000000000000000000000000000000000000000000000000815260206004820181905260248201527f537472696e67733a20686578206c656e67746820696e73756666696369656e746044820152606401610792565b60008281526020818152604080832073ffffffffffffffffffffffffffffffffffffffff8516845290915290205460ff161561095e5760008281526020818152604080832073ffffffffffffffffffffffffffffffffffffffff8516808552925280832080547fffffffffffffffffffffffffffffffffffffffffffffffffffffffffffffff0016905551339285917ff6391f5c32d9c69d2a47ea670b442974b53935d1edc7fd64eb21e047a839171b9190a45050565b600081815260018301602052604081205480156112b25760006111ed6001836117d6565b8554909150600090611201906001906117d6565b9050818114611266576000866000018281548110611221576112216118ac565b9060005260206000200154905080876000018481548110611244576112446118ac565b6000918252602080832090910192909255918252600188019052604090208390555b85548690806112775761127761187d565b60019003818190600052602060002001600090559055856001016000868152602001908152602001600020600090556001935050505061050f565b600091505061050f565b60008260000182815481106112d3576112d36118ac565b9060005260206000200154905092915050565b61067282826109e7565b803563ffffffff8116811461130457600080fd5b919050565b60006020828403121561131b57600080fd5b81356109428161190a565b60008060006060848603121561133b57600080fd5b83356113468161190a565b92506020848101359250604085013567ffffffffffffffff8082111561136b57600080fd5b818701915087601f83011261137f57600080fd5b813581811115611391576113916118db565b6113c1847fffffffffffffffffffffffffffffffffffffffffffffffffffffffffffffffe0601f84011601611732565b915080825288848285010111156113d757600080fd5b80848401858401376000848284010152508093505050509250925092565b60008060006060848603121561140a57600080fd5b83356114158161190a565b9250611423602085016112f0565b9150611431604085016112f0565b90509250925092565b60006020828403121561144c57600080fd5b5035919050565b6000806040838503121561146657600080fd5b8235915060208301356114788161190a565b809150509250929050565b6000806040838503121561149657600080fd5b50508035926020909101359150565b6000602082840312156114b757600080fd5b81357fffffffff000000000000000000000000000000000000000000000000000000008116811461094257600080fd5b6000806000606084860312156114fc57600080fd5b83356115078161190a565b92506020848101356115188161190a565b9250604085013567ffffffffffffffff8082111561153557600080fd5b818701915087601f83011261154957600080fd5b81358181111561155b5761155b6118db565b8060051b915061156c848301611732565b8181528481019084860184860187018c101561158757600080fd5b600095505b838610156115b657803594506115a18561190a565b8483526001959095019491860191860161158c565b508096505050505050509250925092565b600081518084526115df8160208601602086016117ed565b601f017fffffffffffffffffffffffffffffffffffffffffffffffffffffffffffffffe0169290920160200192915050565b600082516116238184602087016117ed565b9190910192915050565b7f416363657373436f6e74726f6c3a206163636f756e74200000000000000000008152600083516116658160178501602088016117ed565b7f206973206d697373696e6720726f6c652000000000000000000000000000000060179184019182015283516116a28160288401602088016117ed565b01602801949350505050565b60208152600061094260208301846115c7565b60006060820173ffffffffffffffffffffffffffffffffffffffff808716845260208187168186015260606040860152828651808552608087019150828801945060005b81811015611723578551851683529483019491830191600101611705565b50909998505050505050505050565b604051601f82017fffffffffffffffffffffffffffffffffffffffffffffffffffffffffffffffe016810167ffffffffffffffff81118282101715611779576117796118db565b604052919050565b600082198211156117945761179461184e565b500190565b6000817fffffffffffffffffffffffffffffffffffffffffffffffffffffffffffffffff04831182151516156117d1576117d161184e565b500290565b6000828210156117e8576117e861184e565b500390565b60005b838110156118085781810151838201526020016117f0565b83811115610cef5750506000910152565b6000816118285761182861184e565b507fffffffffffffffffffffffffffffffffffffffffffffffffffffffffffffffff0190565b7f4e487b7100000000000000000000000000000000000000000000000000000000600052601160045260246000fd5b7f4e487b7100000000000000000000000000000000000000000000000000000000600052603160045260246000fd5b7f4e487b7100000000000000000000000000000000000000000000000000000000600052603260045260246000fd5b7f4e487b7100000000000000000000000000000000000000000000000000000000600052604160045260246000fd5b73ffffffffffffffffffffffffffffffffffffffff8116811461092757600080fdfea2646970667358221220ebe62ee272d15af4895e38a66b2d096300781c73e5bc1905b1cf6bb30b6ee24064736f6c63430008060033",
  "devdoc": {
    "kind": "dev",
    "methods": {
      "getRoleAdmin(bytes32)": {
        "details": "Returns the admin role that controls `role`. See {grantRole} and {revokeRole}. To change a role's admin, use {_setRoleAdmin}."
      },
      "getRoleMember(bytes32,uint256)": {
        "details": "Returns one of the accounts that have `role`. `index` must be a value between 0 and {getRoleMemberCount}, non-inclusive. Role bearers are not sorted in any particular way, and their ordering may change at any point. WARNING: When using {getRoleMember} and {getRoleMemberCount}, make sure you perform all queries on the same block. See the following https://forum.openzeppelin.com/t/iterating-over-elements-on-enumerableset-in-openzeppelin-contracts/2296[forum post] for more information."
      },
      "getRoleMemberCount(bytes32)": {
        "details": "Returns the number of accounts that have `role`. Can be used together with {getRoleMember} to enumerate all bearers of a role."
      },
      "grantRole(bytes32,address)": {
        "details": "Overload {grantRole} to track enumerable memberships"
      },
      "hasRole(bytes32,address)": {
        "details": "Returns `true` if `account` has been granted `role`."
      },
      "renounceRole(bytes32,address)": {
        "details": "Overload {renounceRole} to track enumerable memberships"
      },
      "revokeRole(bytes32,address)": {
        "details": "Overload {revokeRole} to track enumerable memberships"
      },
      "supportsInterface(bytes4)": {
        "details": "See {IERC165-supportsInterface}."
      }
    },
    "stateVariables": {
      "SET_FACTORY_ROLE": {
        "details": "Can add new vaults to the vaultChef."
      },
      "zapHandler": {
        "details": "The underlying vaultChef to administer."
      }
    },
    "version": 1
  },
  "userdoc": {
    "kind": "user",
    "methods": {
      "executeTransaction(address,uint256,bytes)": {
        "notice": "Generic function proxy, only callable by the DEFAULT_ADMIN."
      },
      "grantAllRoles(address)": {
        "notice": "Grants an account all roles. Must be called from a DEFAULT_ADMIN."
      }
    },
    "version": 1
  },
  "storageLayout": {
    "storage": [
      {
        "astId": 24,
        "contract": "contracts/ZapGovernor.sol:ZapGovernor",
        "label": "_roles",
        "offset": 0,
        "slot": "0",
        "type": "t_mapping(t_bytes32,t_struct(RoleData)19_storage)"
      },
      {
        "astId": 325,
        "contract": "contracts/ZapGovernor.sol:ZapGovernor",
        "label": "_roleMembers",
        "offset": 0,
        "slot": "1",
        "type": "t_mapping(t_bytes32,t_struct(AddressSet)2366_storage)"
      },
      {
        "astId": 3246,
        "contract": "contracts/ZapGovernor.sol:ZapGovernor",
        "label": "zapHandler",
        "offset": 0,
        "slot": "2",
        "type": "t_contract(ZapHandlerV1)5290"
      }
    ],
    "types": {
      "t_address": {
        "encoding": "inplace",
        "label": "address",
        "numberOfBytes": "20"
      },
      "t_array(t_bytes32)dyn_storage": {
        "base": "t_bytes32",
        "encoding": "dynamic_array",
        "label": "bytes32[]",
        "numberOfBytes": "32"
      },
      "t_bool": {
        "encoding": "inplace",
        "label": "bool",
        "numberOfBytes": "1"
      },
      "t_bytes32": {
        "encoding": "inplace",
        "label": "bytes32",
        "numberOfBytes": "32"
      },
      "t_contract(ZapHandlerV1)5290": {
        "encoding": "inplace",
        "label": "contract ZapHandlerV1",
        "numberOfBytes": "20"
      },
      "t_mapping(t_address,t_bool)": {
        "encoding": "mapping",
        "key": "t_address",
        "label": "mapping(address => bool)",
        "numberOfBytes": "32",
        "value": "t_bool"
      },
      "t_mapping(t_bytes32,t_struct(AddressSet)2366_storage)": {
        "encoding": "mapping",
        "key": "t_bytes32",
        "label": "mapping(bytes32 => struct EnumerableSet.AddressSet)",
        "numberOfBytes": "32",
        "value": "t_struct(AddressSet)2366_storage"
      },
      "t_mapping(t_bytes32,t_struct(RoleData)19_storage)": {
        "encoding": "mapping",
        "key": "t_bytes32",
        "label": "mapping(bytes32 => struct AccessControl.RoleData)",
        "numberOfBytes": "32",
        "value": "t_struct(RoleData)19_storage"
      },
      "t_mapping(t_bytes32,t_uint256)": {
        "encoding": "mapping",
        "key": "t_bytes32",
        "label": "mapping(bytes32 => uint256)",
        "numberOfBytes": "32",
        "value": "t_uint256"
      },
      "t_struct(AddressSet)2366_storage": {
        "encoding": "inplace",
        "label": "struct EnumerableSet.AddressSet",
        "members": [
          {
            "astId": 2365,
            "contract": "contracts/ZapGovernor.sol:ZapGovernor",
            "label": "_inner",
            "offset": 0,
            "slot": "0",
            "type": "t_struct(Set)2065_storage"
          }
        ],
        "numberOfBytes": "64"
      },
      "t_struct(RoleData)19_storage": {
        "encoding": "inplace",
        "label": "struct AccessControl.RoleData",
        "members": [
          {
            "astId": 16,
            "contract": "contracts/ZapGovernor.sol:ZapGovernor",
            "label": "members",
            "offset": 0,
            "slot": "0",
            "type": "t_mapping(t_address,t_bool)"
          },
          {
            "astId": 18,
            "contract": "contracts/ZapGovernor.sol:ZapGovernor",
            "label": "adminRole",
            "offset": 0,
            "slot": "1",
            "type": "t_bytes32"
          }
        ],
        "numberOfBytes": "64"
      },
      "t_struct(Set)2065_storage": {
        "encoding": "inplace",
        "label": "struct EnumerableSet.Set",
        "members": [
          {
            "astId": 2060,
            "contract": "contracts/ZapGovernor.sol:ZapGovernor",
            "label": "_values",
            "offset": 0,
            "slot": "0",
            "type": "t_array(t_bytes32)dyn_storage"
          },
          {
            "astId": 2064,
            "contract": "contracts/ZapGovernor.sol:ZapGovernor",
            "label": "_indexes",
            "offset": 0,
            "slot": "1",
            "type": "t_mapping(t_bytes32,t_uint256)"
          }
        ],
        "numberOfBytes": "64"
      },
      "t_uint256": {
        "encoding": "inplace",
        "label": "uint256",
        "numberOfBytes": "32"
      }
    }
  }
}