{
  "address": "0xAfEf94984f3C3665e72F1a8d4634659621dA18A0",
  "abi": [
    {
      "inputs": [
        {
          "internalType": "address",
          "name": "_owner",
          "type": "address"
        }
      ],
      "stateMutability": "nonpayable",
      "type": "constructor"
    },
    {
      "anonymous": false,
      "inputs": [
        {
          "indexed": true,
          "internalType": "contract IZapHandler",
          "name": "oldImplementation",
          "type": "address"
        },
        {
          "indexed": true,
          "internalType": "contract IZapHandler",
          "name": "newImplementation",
          "type": "address"
        }
      ],
      "name": "ImplementationChanged",
      "type": "event"
    },
    {
      "anonymous": false,
      "inputs": [
        {
          "indexed": true,
          "internalType": "address",
          "name": "previousOwner",
          "type": "address"
        },
        {
          "indexed": true,
          "internalType": "address",
          "name": "newOwner",
          "type": "address"
        }
      ],
      "name": "OwnershipTransferred",
      "type": "event"
    },
    {
      "anonymous": false,
      "inputs": [
        {
          "indexed": true,
          "internalType": "address",
          "name": "previousPendingOwner",
          "type": "address"
        },
        {
          "indexed": true,
          "internalType": "address",
          "name": "newPendingOwner",
          "type": "address"
        }
      ],
      "name": "PendingOwnershipTransferred",
      "type": "event"
    },
    {
      "inputs": [],
      "name": "from",
      "outputs": [
        {
          "internalType": "address",
          "name": "",
          "type": "address"
        }
      ],
      "stateMutability": "view",
      "type": "function"
    },
    {
      "inputs": [],
      "name": "implementation",
      "outputs": [
        {
          "internalType": "contract IZapHandler",
          "name": "",
          "type": "address"
        }
      ],
      "stateMutability": "view",
      "type": "function"
    },
    {
      "inputs": [],
      "name": "owner",
      "outputs": [
        {
          "internalType": "address",
          "name": "",
          "type": "address"
        }
      ],
      "stateMutability": "view",
      "type": "function"
    },
    {
      "inputs": [],
      "name": "pendingOwner",
      "outputs": [
        {
          "internalType": "address",
          "name": "",
          "type": "address"
        }
      ],
      "stateMutability": "view",
      "type": "function"
    },
    {
      "inputs": [],
      "name": "pendingToken",
      "outputs": [
        {
          "internalType": "contract IERC20",
          "name": "",
          "type": "address"
        }
      ],
      "stateMutability": "view",
      "type": "function"
    },
    {
      "inputs": [
        {
          "internalType": "address",
          "name": "to",
          "type": "address"
        },
        {
          "internalType": "uint256",
          "name": "amount",
          "type": "uint256"
        }
      ],
      "name": "pullAmountTo",
      "outputs": [],
      "stateMutability": "nonpayable",
      "type": "function"
    },
    {
      "inputs": [
        {
          "internalType": "address",
          "name": "to",
          "type": "address"
        }
      ],
      "name": "pullTo",
      "outputs": [],
      "stateMutability": "nonpayable",
      "type": "function"
    },
    {
      "inputs": [],
      "name": "remaining",
      "outputs": [
        {
          "internalType": "uint256",
          "name": "",
          "type": "uint256"
        }
      ],
      "stateMutability": "view",
      "type": "function"
    },
    {
      "inputs": [],
      "name": "renounceOwnership",
      "outputs": [],
      "stateMutability": "nonpayable",
      "type": "function"
    },
    {
      "inputs": [
        {
          "internalType": "contract IZapHandler",
          "name": "_implementation",
          "type": "address"
        }
      ],
      "name": "setImplementation",
      "outputs": [],
      "stateMutability": "nonpayable",
      "type": "function"
    },
    {
      "inputs": [
        {
          "internalType": "address",
          "name": "newPendingOwner",
          "type": "address"
        }
      ],
      "name": "setPendingOwner",
      "outputs": [],
      "stateMutability": "nonpayable",
      "type": "function"
    },
    {
      "inputs": [
        {
          "internalType": "contract IERC20",
          "name": "fromToken",
          "type": "address"
        },
        {
          "internalType": "contract IERC20",
          "name": "toToken",
          "type": "address"
        },
        {
          "internalType": "address",
          "name": "recipient",
          "type": "address"
        },
        {
          "internalType": "uint256",
          "name": "amount",
          "type": "uint256"
        },
        {
          "internalType": "uint256",
          "name": "minReceived",
          "type": "uint256"
        }
      ],
      "name": "swapERC20",
      "outputs": [
        {
          "internalType": "uint256",
          "name": "received",
          "type": "uint256"
        }
      ],
      "stateMutability": "nonpayable",
      "type": "function"
    },
    {
      "inputs": [
        {
          "internalType": "contract IERC20",
          "name": "fromToken",
          "type": "address"
        },
        {
          "internalType": "contract IERC20",
          "name": "toToken",
          "type": "address"
        },
        {
          "internalType": "uint256",
          "name": "amount",
          "type": "uint256"
        }
      ],
      "name": "swapERC20Fast",
      "outputs": [],
      "stateMutability": "nonpayable",
      "type": "function"
    },
    {
      "inputs": [],
      "name": "transferOwnership",
      "outputs": [],
      "stateMutability": "nonpayable",
      "type": "function"
    }
  ],
  "transactionHash": "0x6afad986ce593b8b3c8269595f634d02c31b0dfb682f1d2dab101a1c0cd960ce",
  "args": [
    "0xa66745F0092F7460F107E4c66C224553bF4Cd727"
  ],
  "solcInputHash": "e8b1d42f3f3bbb8408360118cf54cde2",
  "bytecode": "0x6080604052600380546001600160a01b031916600190811790915560055534801561002957600080fd5b506040516113d33803806113d3833981016040819052610048916100ba565b61005133610060565b61005a81610060565b506100ea565b600180546001600160a01b0319908116909155600080546001600160a01b03848116938216841783556040519116929183917f8be0079c531659141344cd1fd0a4f28419497f9722a3daafe3b4186f6b6457e09190a35050565b6000602082840312156100cc57600080fd5b81516001600160a01b03811681146100e357600080fd5b9392505050565b6112da806100f96000396000f3fe608060405234801561001057600080fd5b50600436106100ea5760003560e01c80638da5cb5b1161008c578063d5ce338911610066578063d5ce3389146101ec578063d784d4261461020c578063e30c39781461021f578063f0defe931461023f57600080fd5b80638da5cb5b1461019b578063ae1b6e17146101b9578063c42069ec146101d957600080fd5b806355234ec0116100c857806355234ec01461012a5780635c60da1b14610146578063715018a61461018b578063880ad0af1461019357600080fd5b80633a831d0c146100ef5780633adfd5a6146101045780635188d10d14610117575b600080fd5b6101026100fd36600461112e565b610252565b005b610102610112366004611068565b610378565b610102610125366004611085565b610446565b61013360055481565b6040519081526020015b60405180910390f35b6002546101669073ffffffffffffffffffffffffffffffffffffffff1681565b60405173ffffffffffffffffffffffffffffffffffffffff909116815260200161013d565b610102610571565b6101026105fe565b60005473ffffffffffffffffffffffffffffffffffffffff16610166565b6004546101669073ffffffffffffffffffffffffffffffffffffffff1681565b6101026101e7366004611068565b610782565b6003546101669073ffffffffffffffffffffffffffffffffffffffff1681565b61010261021a366004611068565b61087a565b6001546101669073ffffffffffffffffffffffffffffffffffffffff1681565b61013361024d3660046110d3565b610972565b60038054337fffffffffffffffffffffffff0000000000000000000000000000000000000000918216179091556004805490911673ffffffffffffffffffffffffffffffffffffffff85161790556102ab8160016111f5565b6005556002546040517fbcbf4c8a00000000000000000000000000000000000000000000000000000000815273ffffffffffffffffffffffffffffffffffffffff85811660048301528481166024830152336044830152606482018490529091169063bcbf4c8a90608401600060405180830381600087803b15801561033057600080fd5b505af1158015610344573d6000803e3d6000fd5b5050600380547fffffffffffffffffffffffff00000000000000000000000000000000000000001660011790555050505050565b60025473ffffffffffffffffffffffffffffffffffffffff1633146103fe576040517f08c379a000000000000000000000000000000000000000000000000000000000815260206004820152600f60248201527f21696d706c656d656e746174696f6e000000000000000000000000000000000060448201526064015b60405180910390fd5b6000600160055461040f919061120d565b60016005556003546004549192506104429173ffffffffffffffffffffffffffffffffffffffff90811691168484610c61565b5050565b60025473ffffffffffffffffffffffffffffffffffffffff1633146104c7576040517f08c379a000000000000000000000000000000000000000000000000000000000815260206004820152600f60248201527f21696d706c656d656e746174696f6e000000000000000000000000000000000060448201526064016103f5565b6104d28160016111f5565b600554101561053d576040517f08c379a000000000000000000000000000000000000000000000000000000000815260206004820152600a60248201527f216f76657264726166740000000000000000000000000000000000000000000060448201526064016103f5565b6005805482900390556003546004546104429173ffffffffffffffffffffffffffffffffffffffff91821691168484610c61565b60005473ffffffffffffffffffffffffffffffffffffffff1633146105f2576040517f08c379a000000000000000000000000000000000000000000000000000000000815260206004820181905260248201527f4f776e61626c653a2063616c6c6572206973206e6f7420746865206f776e657260448201526064016103f5565b6105fc6000610cfc565b565b60015473ffffffffffffffffffffffffffffffffffffffff163373ffffffffffffffffffffffffffffffffffffffff16146106bb576040517f08c379a000000000000000000000000000000000000000000000000000000000815260206004820152602760248201527f4f776e61626c653a2063616c6c6572206973206e6f74207468652070656e646960448201527f6e674f776e65720000000000000000000000000000000000000000000000000060648201526084016103f5565b60015473ffffffffffffffffffffffffffffffffffffffff16610760576040517f08c379a000000000000000000000000000000000000000000000000000000000815260206004820152602660248201527f4f776e61626c653a206e6577206f776e657220697320746865207a65726f206160448201527f646472657373000000000000000000000000000000000000000000000000000060648201526084016103f5565b6001546105fc9073ffffffffffffffffffffffffffffffffffffffff16610cfc565b60005473ffffffffffffffffffffffffffffffffffffffff163314610803576040517f08c379a000000000000000000000000000000000000000000000000000000000815260206004820181905260248201527f4f776e61626c653a2063616c6c6572206973206e6f7420746865206f776e657260448201526064016103f5565b6001805473ffffffffffffffffffffffffffffffffffffffff8381167fffffffffffffffffffffffff0000000000000000000000000000000000000000831681179093556040519116919082907f1e1c2f9f5b763f63f56cae5a9a406c263521f324917ae0fe29e5cf9955e81ec890600090a35050565b60005473ffffffffffffffffffffffffffffffffffffffff1633146108fb576040517f08c379a000000000000000000000000000000000000000000000000000000000815260206004820181905260248201527f4f776e61626c653a2063616c6c6572206973206e6f7420746865206f776e657260448201526064016103f5565b6002805473ffffffffffffffffffffffffffffffffffffffff8381167fffffffffffffffffffffffff0000000000000000000000000000000000000000831681179093556040519116919082907fcfbf4028add9318bbf716f08c348595afb063b0e9feed1f86d33681a4b3ed4d390600090a35050565b60038054337fffffffffffffffffffffffff0000000000000000000000000000000000000000918216179091556004805490911673ffffffffffffffffffffffffffffffffffffffff871617905560006109cd8360016111f5565b6005556040517f70a0823100000000000000000000000000000000000000000000000000000000815273ffffffffffffffffffffffffffffffffffffffff8581166004830152600091908716906370a082319060240160206040518083038186803b158015610a3b57600080fd5b505afa158015610a4f573d6000803e3d6000fd5b505050506040513d601f19601f82011682018060405250810190610a73919061116f565b6002546040517fbcbf4c8a00000000000000000000000000000000000000000000000000000000815273ffffffffffffffffffffffffffffffffffffffff8a81166004830152898116602483015288811660448301526064820188905292935091169063bcbf4c8a90608401600060405180830381600087803b158015610af957600080fd5b505af1158015610b0d573d6000803e3d6000fd5b5050600380547fffffffffffffffffffffffff000000000000000000000000000000000000000016600117905550506040517f70a0823100000000000000000000000000000000000000000000000000000000815273ffffffffffffffffffffffffffffffffffffffff868116600483015260009183918916906370a082319060240160206040518083038186803b158015610ba857600080fd5b505afa158015610bbc573d6000803e3d6000fd5b505050506040513d601f19601f82011682018060405250810190610be0919061116f565b610bea919061120d565b905083811015610c56576040517f08c379a000000000000000000000000000000000000000000000000000000000815260206004820152601560248201527f216d696e696d756d206e6f74207265636569766564000000000000000000000060448201526064016103f5565b979650505050505050565b6040805173ffffffffffffffffffffffffffffffffffffffff85811660248301528416604482015260648082018490528251808303909101815260849091019091526020810180517bffffffffffffffffffffffffffffffffffffffffffffffffffffffff167f23b872dd00000000000000000000000000000000000000000000000000000000179052610cf6908590610d7b565b50505050565b600180547fffffffffffffffffffffffff00000000000000000000000000000000000000009081169091556000805473ffffffffffffffffffffffffffffffffffffffff848116938216841783556040519116929183917f8be0079c531659141344cd1fd0a4f28419497f9722a3daafe3b4186f6b6457e09190a35050565b6000610ddd826040518060400160405280602081526020017f5361666545524332303a206c6f772d6c6576656c2063616c6c206661696c65648152508573ffffffffffffffffffffffffffffffffffffffff16610e8c9092919063ffffffff16565b805190915015610e875780806020019051810190610dfb91906110b1565b610e87576040517f08c379a000000000000000000000000000000000000000000000000000000000815260206004820152602a60248201527f5361666545524332303a204552433230206f7065726174696f6e20646964206e60448201527f6f7420737563636565640000000000000000000000000000000000000000000060648201526084016103f5565b505050565b6060610e9b8484600085610ea5565b90505b9392505050565b606082471015610f37576040517f08c379a000000000000000000000000000000000000000000000000000000000815260206004820152602660248201527f416464726573733a20696e73756666696369656e742062616c616e636520666f60448201527f722063616c6c000000000000000000000000000000000000000000000000000060648201526084016103f5565b843b610f9f576040517f08c379a000000000000000000000000000000000000000000000000000000000815260206004820152601d60248201527f416464726573733a2063616c6c20746f206e6f6e2d636f6e747261637400000060448201526064016103f5565b6000808673ffffffffffffffffffffffffffffffffffffffff168587604051610fc89190611188565b60006040518083038185875af1925050503d8060008114611005576040519150601f19603f3d011682016040523d82523d6000602084013e61100a565b606091505b5091509150610c5682828660608315611024575081610e9e565b8251156110345782518084602001fd5b816040517f08c379a00000000000000000000000000000000000000000000000000000000081526004016103f591906111a4565b60006020828403121561107a57600080fd5b8135610e9e8161127f565b6000806040838503121561109857600080fd5b82356110a38161127f565b946020939093013593505050565b6000602082840312156110c357600080fd5b81518015158114610e9e57600080fd5b600080600080600060a086880312156110eb57600080fd5b85356110f68161127f565b945060208601356111068161127f565b935060408601356111168161127f565b94979396509394606081013594506080013592915050565b60008060006060848603121561114357600080fd5b833561114e8161127f565b9250602084013561115e8161127f565b929592945050506040919091013590565b60006020828403121561118157600080fd5b5051919050565b6000825161119a818460208701611224565b9190910192915050565b60208152600082518060208401526111c3816040850160208701611224565b601f017fffffffffffffffffffffffffffffffffffffffffffffffffffffffffffffffe0169190910160400192915050565b6000821982111561120857611208611250565b500190565b60008282101561121f5761121f611250565b500390565b60005b8381101561123f578181015183820152602001611227565b83811115610cf65750506000910152565b7f4e487b7100000000000000000000000000000000000000000000000000000000600052601160045260246000fd5b73ffffffffffffffffffffffffffffffffffffffff811681146112a157600080fd5b5056fea2646970667358221220b770feb809572fd73197b3bb4ae2fddab521c8994ea6f2038721f39c4bf486cb64736f6c63430008060033",
  "devdoc": {
    "details": "All though the underlying implementation is upgradeable, the Zap contract provides a safe wrapper that the implementation can never access approved funds.",
    "kind": "dev",
    "methods": {
      "owner()": {
        "details": "Returns the address of the current owner."
      },
      "pullAmountTo(address,uint256)": {
        "details": "Can only be called by the implementation.",
        "params": {
          "amount": "The amount of tokens to send to the `to` address, cannot exceed the remaining amount indicated by the swap `amount` parameter.",
          "to": "The address to send `amount` tokens of the swap to. This is presumably the first AMM pair in the route."
        }
      },
      "pullTo(address)": {
        "details": "Can only be called by the implementation.",
        "params": {
          "to": "The address to send all remaining tokens of the swap to. This is presumably the first AMM pair in the route."
        }
      },
      "renounceOwnership()": {
        "details": "Leaves the contract without owner. It will not be possible to call `onlyOwner` functions anymore. Can only be called by the current owner. NOTE: Renouncing ownership will leave the contract without an owner, thereby removing any functionality that is only available to the owner."
      },
      "setImplementation(address)": {
        "details": "Can only be called by the contract owner.",
        "params": {
          "_implementation": "The new implementation."
        }
      },
      "setPendingOwner(address)": {
        "details": "Sets the pendingOwner, ownership is only transferred when they call transferOwnership. Can only be called by the current owner."
      },
      "swapERC20(address,address,address,uint256,uint256)": {
        "params": {
          "amount": "The amount that the zapper should take from the `msg.sender` and swap.",
          "fromToken": "The token to take from `msg.sender` and exchange for `toToken`.",
          "minReceived": "The minimum amount of `toToken` the `recipient` should receive. Otherwise the transaction reverts.",
          "recipient": "The destination address to receive the `toToken`.",
          "toToken": "The token that will be bought and sent to the `recipient`."
        }
      },
      "swapERC20Fast(address,address,uint256)": {
        "params": {
          "amount": "The amount that the zapper should take from the `msg.sender` and swap.",
          "fromToken": "The token to take from `msg.sender` and exchange for `toToken`.",
          "toToken": "The token that will be bought and sent to the `msg.sender`."
        }
      },
      "transferOwnership()": {
        "details": "Transfers ownership of the contract to the pendingOwner. Can only be called by the pendingOwner."
      }
    },
    "stateVariables": {
      "from": {
        "details": "Temporary variables that are set at the beginning of a swap and unset at the end of a swap.This is necessary because the contract employs a pull hook flow to reduce the impact of transfer-tax tokens.`from` and `remaining` have their zero variable moved to value 1, this is because EVMs charge a high cost for moving a variable away from zero.Internally, remaining will always be corrected with a -1 factor."
      },
      "implementation": {
        "details": "The implementation that actually executes the swap orders"
      }
    },
    "version": 1
  },
  "userdoc": {
    "kind": "user",
    "methods": {
      "pullAmountTo(address,uint256)": {
        "notice": "When the implementation calls pullAmountTo while in a swap, `amount` tokens of the `swap` amount will be sent from the swap`msg.sender` to the `to` address chosen by the implementation.This amount cannot exceed the amount set in the original swap transaction.Traditionally these funds would just be transferred to the implementation which then forwards them to the pairs.However, by using pull hooks, one avoids a transfer which is important for transfer-tax tokens."
      },
      "pullTo(address)": {
        "notice": "When the implementation calls pullTo while in a swap, the remaining tokens of the `swap` amount will be sent from the swap `msg.sender` to the `to` address chosen by the implementation.This amount cannot exceed the amount set in the original swap transaction.Traditionally these funds would just be transferred to the implementation which then forwards them to the pairs.However, by using pull hooks, one avoids a transfer which is important for transfer-tax tokens."
      },
      "setImplementation(address)": {
        "notice": "Sets the underlying implementation that fulfills the swap orders."
      },
      "swapERC20(address,address,address,uint256,uint256)": {
        "notice": "Swap `amount` of `fromToken` to `toToken` and send them to the `recipient`.The `fromToken` and `toToken` arguments can be AMM pairs.Reverts if the `recipient` received less tokens than `minReceived`.Requires approval."
      },
      "swapERC20Fast(address,address,uint256)": {
        "notice": "Swap `amount` of `fromToken` to `toToken` and send them to the `msg.sender`.The `fromToken` and `toToken` arguments can be AMM pairs.Requires approval."
      }
    },
    "notice": "The Zap contract is an interface that allows other contracts to swap a token for another token without having to directly interact with verbose AMMs directly.It furthermore allows to zap to and from an LP pair within a single transaction.",
    "version": 1
  },
  "storageLayout": {
    "storage": [
      {
        "astId": 5292,
        "contract": "contracts/Zap.sol:Zap",
        "label": "_owner",
        "offset": 0,
        "slot": "0",
        "type": "t_address"
      },
      {
        "astId": 5294,
        "contract": "contracts/Zap.sol:Zap",
        "label": "pendingOwner",
        "offset": 0,
        "slot": "1",
        "type": "t_address"
      },
      {
        "astId": 2977,
        "contract": "contracts/Zap.sol:Zap",
        "label": "implementation",
        "offset": 0,
        "slot": "2",
        "type": "t_contract(IZapHandler)5505"
      },
      {
        "astId": 2984,
        "contract": "contracts/Zap.sol:Zap",
        "label": "from",
        "offset": 0,
        "slot": "3",
        "type": "t_address"
      },
      {
        "astId": 2987,
        "contract": "contracts/Zap.sol:Zap",
        "label": "pendingToken",
        "offset": 0,
        "slot": "4",
        "type": "t_contract(IERC20)1247"
      },
      {
        "astId": 2990,
        "contract": "contracts/Zap.sol:Zap",
        "label": "remaining",
        "offset": 0,
        "slot": "5",
        "type": "t_uint256"
      }
    ],
    "types": {
      "t_address": {
        "encoding": "inplace",
        "label": "address",
        "numberOfBytes": "20"
      },
      "t_contract(IERC20)1247": {
        "encoding": "inplace",
        "label": "contract IERC20",
        "numberOfBytes": "20"
      },
      "t_contract(IZapHandler)5505": {
        "encoding": "inplace",
        "label": "contract IZapHandler",
        "numberOfBytes": "20"
      },
      "t_uint256": {
        "encoding": "inplace",
        "label": "uint256",
        "numberOfBytes": "32"
      }
    }
  }
}